:100000000C942A000C9434000C9434000C943400AA
:100010000C9434000C9434000C9434000C94340090
:100020000C9434000C9434000C9434000C94340080
:100030000C9434000C9434000C9434000C94340070
:100040000C9434000C9434000C9434000C94340060
:100050000C94340011241FBECFE5D8E0DEBFCDBF25
:100060000E9436000C9445000C9400008E9A40E4E7
:1000700028EC30E082B3842782BB80E197E2F9016B
:0E0080003197F1F70197D9F7F5CFF894FFCF3C
:00000001FF
