:100000000C942A000C9434000C9434000C943400AA
:100010000C9434000C9434000C9434000C94340090
:100020000C9434000C9434000C9434000C94340080
:100030000C9434000C9434000C9434000C94340070
:100040000C9434000C9434000C9434000C94340060
:100050000C94340011241FBECFE5D4E0DEBFCDBF29
:100060000E9436000C9451000C940000B89AB99884
:10007000C19A41E028EC30E088B3842788BBB1996D
:1000800008C080E197E2F9013197F1F70197D9F7BC
:10009000F3CF88EE93E0F9013197F1F70197D9F7A3
:0600A000EBCFF894FFCF46
:00000001FF
