:100000000C944D000C945F000C945F000C94360728
:100010000C9442060C9409070C94AF060C94DC0671
:100020000C9415060C94C2050C945F000C94F60019
:100030000C945F000C943B010C9413040C945F002F
:100040000C945F000C945F000C945F000C9482068B
:100050000C945F0025630A005541525420496E6993
:100060007469616C697365642E2E2E0030313233F1
:1000700034353637383941424344454600000001A3
:1000800000080040000001000400000100080020FA
:100090000040008000000100040011241FBECFE5D5
:1000A000D4E0DEBFCDBF11E0A0E6B0E001C01D92FC
:1000B000A631B107E1F70E9473000C9483080C94F9
:1000C000000014BA15BA8FEF81BB87EC87BB089587
:1000D000089594980895949A0895929A92980895FC
:1000E000939A939808951F93CF93DF930E94C3012F
:1000F00060E875E280E090E00E94BD008EED90E047
:100100000E94DC0100D00F9281E0ADB7BEB711961E
:100110008C93119788E590E013969C938E93129799
:100120000E9437030F900F900F9011E0C4E5D0E0CC
:100130000E949C018093F40017C000D000D00F9261
:10014000EDB7FEB73196ADB7BEB711961C93D2830B
:10015000C1838091F400838314820E9437030F903F
:100160000F900F900F900F9000B407FCE1CFE5CFF8
:100170009093E1008093E00008959B01AC016058EA
:100180007B47814E9F4FF3E0660F771F881F991FB3
:10019000FA95D1F7E4E0220F331F441F551FEA956B
:1001A000D1F70E9446082150304029B930BD08954A
:1001B00086EF90E008958FEF90E00895982F80915A
:1001C000F5008823E1F39CB91092F5000895109290
:1001D000FB001092FA0008958091FA009091FB00C4
:1001E000892B11F080E008958FEF08951F920F92F0
:1001F0000FB60F9211242F933F934F935F936F93FA
:100200007F938F939F93AF93BF93EF93FF936CB1C3
:100210008091E0009091E100892B39F0E091E000BD
:10022000F091E100862F09950FC086EF90E00E94C3
:10023000D907882349F4809107019091080101961C
:100240009093080180930701FF91EF91BF91AF91C7
:100250009F918F917F916F915F914F913F912F91DE
:100260000F900FBE0F901F901895682F8FEF90E0A2
:100270000E94D90708951F920F920FB60F92112472
:100280002F933F934F935F936F937F938F939F939E
:10029000AF93BF93EF93FF938091FE00882371F09B
:1002A0008091030190910401892B31F08FEF90E050
:1002B0000E9470078CB905C01092FE008FEF8093EA
:1002C000F500FF91EF91BF91AF919F918F917F9139
:1002D0006F915F914F913F912F910F900FBE0F90B3
:1002E0001F9018958FEF8093FE008FEF90E00E9493
:1002F0007007982F8091F5008823E1F39CB9109244
:10030000F5000895CF93DF93EC018091F800909170
:10031000F900892B69F08091FA009091FB00892BFC
:1003200039F086EF90E00E94700788838FEF01C05C
:1003300080E0DF91CF910895DF93CF930F92CDB7F7
:10034000DEB7CE0101960E948201882319F42FEFB7
:100350003FEF03C08981282F30E0C9010F90CF9172
:10036000DF91089586EF90E060E670E040E450E0B1
:100370000E9463078FEF90E060EA70E040E450E095
:100380000E94630708950E94B2011092E10010924A
:10039000E00088ED8AB960E875E280E090E00E94B4
:1003A000BD008FEF8093F5001092FE0010920801BF
:1003B00010920701789408959093E3008093E200EF
:1003C00008951F93182F8A3031F4E091E200F091E4
:1003D000E3008DE00995E091E200F091E300812FC8
:1003E00009951F910895CF93DF93EC01009721F4B5
:1003F00006C021960E94E10188818823D1F7DF9110
:10040000CF910895EF92FF920F931F93CF93DF93B5
:100410008C017A010097E9F020E030E026173707D9
:1004200038F4F80181918F012F5F3F4F8823B1F796
:10043000C0E0D0E00BC0F8018081882319F00F5F85
:100440001F4F01C080E20E94E1012196CE15DF0519
:1004500090F3DF91CF911F910F91FF90EF9008954E
:10046000CF93DF93EC01009719F407C00E94E101DC
:10047000FE01219684918823C9F7DF91CF910895D9
:100480008AE00E94E1010895E82FF0E0EF70F0703B
:10049000E459FF4FE4918E2F0E94E10108951F93CC
:1004A000182F82958F700E944402812F0E9444026F
:1004B0001F9108951F93182F892F0E944F02812F9B
:1004C0000E944F021F910895EF92FF920F931F9386
:1004D0007B018C01C801AA27BB270E945A02C701D1
:1004E0000E945A021F910F91FF90EF9008952F9252
:1004F0003F924F925F926F927F928F929F92AF92B4
:10050000BF92CF92DF92EF92FF920F931F93DF93F0
:10051000CF93CDB7DEB7A3970FB6F894DEBF0FBE6B
:10052000CDBF6AA3242E2BA337014801442351F0E9
:1005300017FF08C0EE24FF248701E618F708080912
:10054000190902C0840173012AA1215090E02110F1
:1005500091E0291B29A318A2A82EBB24CC24DD24BA
:10056000C801B701A60195010E944608FB01EF7082
:10057000F070E459FF4F64916F8FC801B701A60175
:1005800095010E944608C901DA017C018D019EE1B6
:10059000492E512C4C0E5D1E39A025C0E114F104EA
:1005A00001051105C9F0C801B701A60195010E9416
:1005B0004608FB01EF70F070E459FF4F6491F201BF
:1005C0006083C801B701A60195010E944608C901D0
:1005D000DA017C018D0103C02BA1F20120833A9442
:1005E0000894410851083320C9F6CE014F968C017A
:1005F000E9A10E1B11092220F1F097FE05C08DE242
:10060000F80182938F0117C0C8010197611471042A
:100610008104910419F08C018BE202C08C0180E20C
:10062000F801808308C0F80181918F010E94E101E7
:10063000FAA1F150FAA32AA12223A9F7A3960FB693
:10064000F894DEBF0FBECDBFCF91DF911F910F9108
:10065000FF90EF90DF90CF90BF90AF909F908F90E2
:100660007F906F905F904F903F902F9008957F9272
:100670008F929F92AF92BF92CF92DF92EF92FF92B2
:100680000F931F93DF93CF93CDB7DEB77888C988D8
:10069000DA8853E1E52EF12CEC0EFD1E14C0882300
:1006A00081F480E090E0CF91DF911F910F91FF9056
:1006B000EF90DF90CF90BF90AF909F908F907F9002
:1006C00008950E94E10196012F5F3F4F772021F0AE
:1006D000F6016901849103C0F601808169018532C8
:1006E000F1F62F5F3F4F772021F0F60169018491E9
:1006F00003C0F60180816901843629F0883781F0D2
:100700008336F9F606C000E117E24AE0A42EB12CC8
:100710000CC0F701808122E030E0E20EF31ED1CF61
:1007200000E010E130E1A32EB12C22E0822E912CCA
:100730008E0C9F1CF701E080F1808436B1F4F7FE47
:1007400011C0F094E194F108F3948DE20E94E1016C
:1007500009C0C8016AE070E00E9432088B01623073
:10076000710518F0E016F106A0F3C701B8010E9468
:100770003208862F0E944402C701B8010E94320845
:100780007C01C801B5010E9432088B016115710519
:1007900061F7740198CF379A359886B1887F866063
:1007A00086B987B18F73806487B93D98339A109268
:1007B00009017894089533983798089596B1987FF1
:1007C000982B96B9089597B18295880F880F807CF1
:1007D0009F73982B97B9089597B18F71907E892B4D
:1007E00087B90895349A369A089586B18074089529
:1007F0001092090197B18F71907E892B87B9349A35
:10080000369A3699FECF24B145B1942F80E030E07E
:10081000282B392BC90108950E94F80396958795D6
:100820009695879508951F920F920FB60F921124F7
:100830008F938FEF809309018F910F900FBE0F90D0
:100840001F901895089583B7887F826083BF12BE7A
:1008500089B7816089BF10920A0110920B01109232
:100860000C0110920D0108958EB5887F83608EBDB6
:100870001DBC1CBC89B7846089BF089585B5887F7D
:10088000846085BD14BC89B7806489BF1092120151
:10089000109213011092140110921501089580E036
:1008A00090E0FC01EE0FFF1FEC51FF4F1182108210
:1008B000019688309105A9F70E9423040E94340410
:1008C0000E943E047894089593B7987F982B93BF25
:1008D00008959EB5987F982B9EBD089595B5987FF5
:1008E000982B95BD089583B7E82FF0E0E770F0707E
:1008F000EE0FFF1FE358FF4F25913491C901089572
:100900008EB5E82FF0E0E770F070EE0FFF1FE358B0
:10091000FF4F25913491C901089585B5E82FF0E086
:10092000E770F070EE0FFF1FE757FF4F25913491EE
:10093000C9010895883040F4E82FF0E0EE0FFF1F62
:10094000EC51FF4F718360830895883040F4E82FA5
:10095000F0E0EE0FFF1FEC51FF4F1182108208955F
:10096000EF92FF920F931F93CF93DF93EC0112B797
:1009700010920E0110920F011092100110921101AD
:1009800083B7E82FF0E0E770F070EE0FFF1FE35839
:10099000FF4F2591349140E050E060E074E284EF35
:1009A00090E00E946808B901CA01693B2DE872070E
:1009B00026E0820720E09207A0F437E2C131D30796
:1009C00080F49E0140E050E00E94130828EE33E0DE
:1009D00040E050E00E944608C901DA01BC01CD01A7
:1009E00021C028EE33E040E050E00E944608CA01F2
:1009F000B9019E0140E050E00E94130813C08091AD
:100A00000E0190910F01A0911001B091110185B7D5
:100A10008F7485BF85B7806485BF889585B78F7BC8
:100A200085BF08C09B01AC01210F311D411D511D27
:100A300079018A0120910E0130910F01409110013E
:100A40005091110182B790E0A0E0B0E0542F432F05
:100A5000322F2227822B932BA42BB52B8E159F058B
:100A6000A007B10760F2DF91CF911F910F91FF9026
:100A7000EF90089510920A0110920B0110920C0150
:100A800010920D01089520910A0130910B014091BF
:100A90000C0150910D01B901CA0108951092120183
:100AA00010921301109214011092150108952091D3
:100AB0001201309113014091140150911501B901B7
:100AC000CA010895893031F48FB582608FBD8FB52A
:100AD0008E7F0AC08A3019F48FB5826002C08FB54C
:100AE0008D7F8FBD8FB581608FBD1BBC1ABC19BCBB
:100AF00018BC08952FB52E7F2FBD2FB522602FBDB6
:100B00002EB528602EBD2EB520612EBD97BD86BDA9
:100B10001BBC1ABC19BC18BC08958FB58D7F8FBD46
:100B20008FB58E7F8FBD8FB58F778FBD8FB58F7B44
:100B30008FBD8FB58F7D8FBD8FB58F7E8FBD089593
:100B40008FB580688FBD8FB58F7B8FBD08958FB5B2
:100B500080628FBD8FB58F7E8FBD08958FB58F77E3
:100B60008FBD8FB58F7B8FBD08958FB58F7D8FBD66
:100B70008FB58F7E8FBD08959BBD8ABD089599BDA9
:100B800088BD08951F920F920FB60F9211242F93D4
:100B90003F934F935F936F937F938F939F93AF9305
:100BA000BF93EF93FF9380910A0190910B01A09165
:100BB0000C01B0910D010196A11DB11D80930A0198
:100BC00090930B01A0930C01B0930D0180910E0145
:100BD00090910F01A0911001B09111010196A11DFA
:100BE000B11D80930E0190930F01A0931001B0935B
:100BF00011018091E4009091E500892B29F0E091AA
:100C0000E400F091E5000995FF91EF91BF91AF915C
:100C10009F918F917F916F915F914F913F912F9114
:100C20000F900FBE0F901F9018951F920F920FB646
:100C30000F9211242F933F934F935F936F937F9362
:100C40008F939F93AF93BF93EF93FF938091E600B1
:100C50009091E700892B29F0E091E600F091E70000
:100C60000995FF91EF91BF91AF919F918F917F91E6
:100C70006F915F914F913F912F910F900FBE0F9009
:100C80001F9018951F920F920FB60F9211242F9359
:100C90003F934F935F936F937F938F939F93AF9304
:100CA000BF93EF93FF938091120190911301A09154
:100CB0001401B09115010196A11DB11D809312017F
:100CC00090931301A0931401B09315018091EE004D
:100CD0009091EF00892B29F0E091EE00F091EF0068
:100CE0000995FF91EF91BF91AF919F918F917F9166
:100CF0006F915F914F913F912F910F900FBE0F9089
:100D00001F9018951F920F920FB60F9211242F93D8
:100D10003F934F935F936F937F938F939F93AF9383
:100D2000BF93EF93FF938091F2009091F300892B92
:100D300029F0E091F200F091F3000995FF91EF9115
:100D4000BF91AF919F918F917F916F915F914F91E3
:100D50003F912F910F900FBE0F901F9018951F92EB
:100D60000F920FB60F9211242F933F934F935F93DF
:100D70006F937F938F939F93AF93BF93EF93FF9363
:100D80008091E8009091E900892B29F0E091E8003A
:100D9000F091E9000995FF91EF91BF91AF919F917B
:100DA0008F917F916F915F914F913F912F910F9014
:100DB0000FBE0F901F9018951F920F920FB60F92B3
:100DC00011242F933F934F935F936F937F938F9350
:100DD0009F93AF93BF93EF93FF938091EA0090911D
:100DE000EB00892B29F0E091EA00F091EB000995E6
:100DF000FF91EF91BF91AF919F918F917F916F91F3
:100E00005F914F913F912F910F900FBE0F901F90C8
:100E100018951F920F920FB60F9211242F933F93A4
:100E20004F935F936F937F938F939F93AF93BF93F2
:100E3000EF93FF938091EC009091ED00892B29F0C6
:100E4000E091EC00F091ED000995FF91EF91BF91D9
:100E5000AF919F918F917F916F915F914F913F9152
:100E60002F910F900FBE0F901F9018951F920F9209
:100E70000FB60F9211242F933F934F935F936F936D
:100E80007F938F939F93AF93BF93EF93FF93809143
:100E9000F0009091F100892B29F0E091F000F091A1
:100EA000F1000995FF91EF91BF91AF919F918F91C3
:100EB0007F916F915F914F913F912F910F900FBE56
:100EC0000F901F901895FC018FB7F8947183608381
:100ED0005383428317821682158214828FBF08952E
:100EE000DC014FB7F89414968D919C911597892B3E
:100EF00011F4E0E025C016968D919C911797ED9125
:100F0000FC911197E80FF91FE081019617969C93C9
:100F10008E93169712962D913C91139782179307F3
:100F200030F0821B930B17969C938E931697149612
:100F30008D919C911597019715969C938E9314977C
:100F40004FBF8E2F0895FC014FB7F894848195818F
:100F500068177907B0F486819781860F971F97836A
:100F60008683228133818217930720F0821B930BA3
:100F70009783868384819581861B970B95838483D1
:100F800002C0158214824FBF0895FC01CB012FB718
:100F9000F8942FBF2681378162817381820F931F5E
:100FA0000E9432080190F081E02DE80FF91F808146
:100FB00008951F93CF93DF93EC01162F4FB7F8944A
:100FC0002C813D816A817B812617370798F48E81B9
:100FD0009F81820F931F0E943208E881F981E80FF8
:100FE000F91F10838C819D8101969D838C834FBF57
:100FF0008FEF02C04FBF80E0DF91CF911F91089526
:10100000FC018FB7F8948FBF228133818481958151
:10101000281B390BC9010895FC018FB7F89415827C
:1010200014828FBF0895629FD001739FF001829F49
:10103000E00DF11D649FE00DF11D929FF00D839F67
:10104000F00D749FF00D659FF00D9927729FB00D04
:10105000E11DF91F639FB00DE11DF91FBD01CF0117
:1010600011240895AA1BBB1B51E107C0AA1FBB1F77
:10107000A617B70710F0A61BB70B881F991F5A9524
:10108000A9F780959095BC01CD010895A1E21A2E93
:10109000AA1BBB1BFD010DC0AA1FBB1FEE1FFF1F1C
:1010A000A217B307E407F50720F0A21BB30BE40B6C
:1010B000F50B661F771F881F991F1A9469F76095B3
:1010C0007095809590959B01AC01BD01CF0108956D
:1010D00097FB092E05260ED057FD04D0D7DF0AD086
:1010E000001C38F450954095309521953F4F4F4F57
:1010F0005F4F0895F6F790958095709561957F4FB5
:0A1100008F4F9F4F0895F894FFCF22
:00000001FF
