S01A000041746D656C5F53747564696F365F746573742E73726563EB
S11300000C942A000C9434000C9434000C943400A6
S11300100C9434000C9434000C9434000C9434008C
S11300200C9434000C9434000C9434000C9434007C
S11300300C9434000C9434000C9434000C9434006C
S11300400C9434000C9434000C9434000C9434005C
S11300500C94340011241FBECFE5D4E0DEBFCDBF25
S11300600E9436000C9445000C9400008E9A90E493
S113007082B3892782BB2FEF3FE087E221503040D3
S11100808040E1F700C00000F3CFF894FFCFFA
S9030000FC
