:100000000C942A000C9434000C9434000C943400AA
:100010000C9434000C9434000C9434000C94340090
:100020000C9434000C9434000C9434000C94340080
:100030000C9434000C9434000C9434000C94340070
:100040000C9434000C9434000C9434000C94340060
:100050000C94340011241FBECFE5D4E0DEBFCDBF29
:100060000E9446000C945C000C94000040E020E0EC
:1000700030E0C9010197F1F7C9010197F1F7C90112
:100080000197F1F74F5F4233A1F70895CF93DF93C4
:100090008FB5826A8FBD8EB58B618EBD87E893E187
:1000A00097BD86BD81B3806381BBCCE3D1E0DBBD6E
:0C00B000CABD0E943600FBCFF894FFCFC1
:00000001FF
