:100000000C9460000C9472000C9472000C94BC0868
:100010000C94C8070C948F080C9435080C94620853
:100020000C949B070C9448070C9472000C94BB032F
:100030000C9472000C9400040C9499050C947200BA
:100040000C9472000C9472000C9472000C940808CA
:100050000C9472002563207269676874200A00722C
:10006000696768740A0025632061200A006C656670
:10007000740A0025632073200A0072657665727326
:10008000650A0025632077200A00666F7277617227
:10009000640A00303132333435363738394142431F
:1000A0004445460000000100080040000001000433
:1000B0000000010008002000400080000001000452
:1000C00011241FBECFE5D4E0DEBFCDBF11E0A0E616
:1000D000B0E001C01D92A531B107E1F70E949E007A
:1000E0000C9459090C94000014BA15BA8FEF81BB17
:1000F00087EC87BB0895089594980895949A08957D
:10010000929A92980895939A9398089583B78966DE
:1001100083BFBB9A8FB581688FBD8EB589608EBD58
:100120008D9A85B5896685BD8F9A08958CBF77278E
:1001300067FD70957BBD6ABD43BD08952F923F92C8
:100140004F925F926F927F928F929F92AF92BF92E7
:10015000CF92DF92EF92FF920F931F93CF93DF9393
:1001600087B38FEF87BB0E9486000E94880460E8F7
:1001700075E280E090E00E94820383EA93E00E94AF
:100180008E0112BE1DBC1CBC14BC88B388BB1CBE37
:1001900082B382BB11E0EE24EA94FE2C0FEFC0E69E
:1001A000DAEE5DE6252E50E0352E46E6442E40E0A0
:1001B000542E31E6632E712C2FE5822E20E0922EF4
:1001C00094E5A92E90E0B92E84E6C82ED12C0E9489
:1001D0006104843609F472C0853620F4813609F052
:1001E00094C04DC0833739F1873709F08EC000D0F5
:1001F0000F92ADB7BEB711961C931197EAE8F0E0E5
:100200001396FC93EE9312970E94E90200D0EDB78B
:10021000FEB73196ADB7BEB711961C9383E890E058
:1002200092838183A7E7B0E0B483A3830E94E902AD
:1002300088B380691FC000D00F92EDB7FEB711835D
:100240008AE790E0938382830E94E90200D0EDB7B1
:10025000FEB73196ADB7BEB711961C9383E790E019
:1002600092838183A3E7B0E0B483A3830E94E90271
:1002700088B3806688BB1CBEFBBCEABC3CC000D017
:100280000F92EDB7FEB71183338222820E94E902FA
:1002900000D0EDB7FEB73196ADB7BEB711961C933F
:1002A00052824182748263820E94E90288B382642E
:1002B00088BB0CBFFBBCEABC13BC1EC000D00F92B5
:1002C000EDB7FEB71183938282820E94E90200D0CB
:1002D000EDB7FEB73196ADB7BEB711961C93B2829B
:1002E000A182D482C3820E94E90288B3816888BB5C
:1002F0000CBF1BBC1ABC03BDCE010197F1F70F90D8
:100300000F900F900F900F9062CF1CBE1BBC1ABCB9
:1003100013BC88B388BB82B382BB59CF9093610072
:100320008093600008951F93182F8A3031F4E09174
:100330006000F09161008DE00995E0916000F0911E
:100340006100812F09951F910895CF93DF93EC01F0
:10035000009721F406C021960E949301888188238A
:10036000D1F7DF91CF910895EF92FF920F931F93F2
:10037000CF93DF938C017A010097E9F020E030E021
:100380002617370738F4F80181918F012F5F3F4F0F
:100390008823B1F7C0E0D0E00BC0F801808188234A
:1003A00019F00F5F1F4F01C080E20E949301219658
:1003B000CE15DF0590F3DF91CF911F910F91FF9044
:1003C000EF900895CF93DF93EC01009719F407C0E5
:1003D0000E949301FE01219684918823C9F7DF9141
:1003E000CF9108958AE00E9493010895E82FF0E0EC
:1003F000EF70F070ED56FF4FE4918E2F0E94930145
:1004000008951F93182F82958F700E94F601812FF7
:100410000E94F6011F9108951F93182F892F0E94A3
:100420000102812F0E9401021F910895EF92FF9215
:100430000F931F937B018C01C801AA27BB270E9441
:100440000C02C7010E940C021F910F91FF90EF90C8
:1004500008952F923F924F925F926F927F928F9268
:100460009F92AF92BF92CF92DF92EF92FF920F9343
:100470001F93DF93CF93CDB7DEB7A3970FB6F89452
:10048000DEBF0FBECDBF6AA3242E2BA337014801C8
:10049000442351F017FF08C0EE24FF248701E6181B
:1004A000F7080809190902C0840173012AA1215023
:1004B00090E0211091E0291B29A318A2A82EBB24AB
:1004C000CC24DD24C801B701A60195010E941C09B6
:1004D000FB01EF70F070ED56FF4F64916F8FC80114
:1004E000B701A60195010E941C09C901DA017C012E
:1004F0008D019EE1492E512C4C0E5D1E39A025C068
:10050000E114F10401051105C9F0C801B701A60104
:1005100095010E941C09FB01EF70F070ED56FF4F32
:100520006491F2016083C801B701A60195010E94A0
:100530001C09C901DA017C018D0103C02BA1F20164
:1005400020833A940894410851083320C9F6CE011B
:100550004F968C01E9A10E1B11092220F1F097FEA4
:1005600005C08DE2F80182938F0117C0C801019781
:10057000611471048104910419F08C018BE202C0B2
:100580008C0180E2F801808308C0F80181918F011D
:100590000E949301FAA1F150FAA32AA12223A9F7FC
:1005A000A3960FB6F894DEBF0FBECDBFCF91DF91FB
:1005B0001F910F91FF90EF90DF90CF90BF90AF9081
:1005C0009F908F907F906F905F904F903F902F9073
:1005D00008957F928F929F92AF92BF92CF92DF92B7
:1005E000EF92FF920F931F93DF93CF93CDB7DEB7B8
:1005F0007888C988DA8853E1E52EF12CEC0EFD1ECF
:1006000014C0882381F480E090E0CF91DF911F91A6
:100610000F91FF90EF90DF90CF90BF90AF909F90A1
:100620008F907F9008950E94930196012F5F3F4F16
:10063000772021F0F6016901849103C0F6018081E1
:1006400069018532F1F62F5F3F4F772021F0F601E7
:100650006901849103C0F60180816901843629F023
:10066000883781F08336F9F606C000E117E24AE0E8
:10067000A42EB12C0CC0F701808122E030E0E20E04
:10068000F31ED1CF00E010E130E1A32EB12C22E027
:10069000822E912C8E0C9F1CF701E080F180843615
:1006A000B1F4F7FE11C0F094E194F108F3948DE2F7
:1006B0000E94930109C0C8016AE070E00E94080925
:1006C0008B016230710518F0E016F106A0F3C70146
:1006D000B8010E940809862F0E94F601C701B801DF
:1006E0000E9408097C01C801B5010E9408098B011C
:1006F0006115710561F7740198CF9093E3008093C1
:10070000E20008959B01AC0160587B47814E9F4FEA
:10071000F3E0660F771F881F991FFA95D1F7E4E081
:10072000220F331F441F551FEA95D1F70E941C0961
:100730002150304029B930BD089585EF90E00895EB
:100740008EEF90E00895982F8091F4008823E1F3D4
:100750009CB91092F40008951092FA001092F900DA
:1007600008958091F9009091FA00892B11F080E0B2
:1007700008958FEF08951F920F920FB60F921124D4
:100780002F933F934F935F936F937F938F939F9399
:10079000AF93BF93EF93FF936CB18091E200909180
:1007A000E300892B39F0E091E200F091E300862F1D
:1007B00009950FC085EF90E00E941705882349F442
:1007C0008091060190910701019690930701809313
:1007D0000601FF91EF91BF91AF919F918F917F9112
:1007E0006F915F914F913F912F910F900FBE0F909E
:1007F0001F901895682F8EEF90E00E9417050895BE
:100800001F920F920FB60F9211242F933F934F9385
:100810005F936F937F938F939F93AF93BF93EF9368
:10082000FF938091FD00882371F0809102019091E7
:100830000301892B31F08EEF90E00E94AE048CB959
:1008400005C01092FD008FEF8093F400FF91EF91AF
:10085000BF91AF919F918F917F916F915F914F91D8
:100860003F912F910F900FBE0F901F9018958FEF13
:100870008093FD008EEF90E00E94AE04982F80914F
:10088000F4008823E1F39CB91092F4000895CF930B
:10089000DF93EC018091F7009091F800892B69F0CB
:1008A0008091F9009091FA00892B39F085EF90E062
:1008B0000E94AE0488838FEF01C080E0DF91CF916A
:1008C0000895DF93CF930F92CDB7DEB7CE01019697
:1008D0000E944704882319F42FEF3FEF03C089815A
:1008E000282F30E0C9010F90CF91DF91089585EF57
:1008F00090E062E670E040E450E00E94A1048EEFD8
:1009000090E062EA70E040E450E00E94A1040895A3
:100910000E9477041092E3001092E20088ED8AB9F9
:1009200060E875E280E090E00E9482038FEF8093A0
:10093000F4001092FD0010920701109206017894C5
:100940000895FC018FB7F8947183608353834283C9
:1009500017821682158214828FBF0895DC014FB76B
:10096000F89414968D919C911597892B11F4E0E0E1
:1009700025C016968D919C911797ED91FC9111973A
:10098000E80FF91FE081019617969C938E931697B6
:1009900012962D913C9113978217930730F0821B8A
:1009A000930B17969C938E93169714968D919C910A
:1009B0001597019715969C938E9314974FBF8E2F82
:1009C0000895FC014FB7F8948481958168177907E1
:1009D000B0F486819781860F971F97838683228143
:1009E00033818217930720F0821B930B97838683B2
:1009F00084819581861B970B9583848302C0158221
:100A000014824FBF0895FC01CB012FB7F8942FBF7C
:100A10002681378162817381820F931F0E940809AA
:100A20000190F081E02DE80FF91F808108951F9358
:100A3000CF93DF93EC01162F4FB7F8942C813D81B3
:100A40006A817B812617370798F48E819F81820FF8
:100A5000931F0E940809E881F981E80FF91F1083AC
:100A60008C819D8101969D838C834FBF8FEF02C047
:100A70004FBF80E0DF91CF911F910895FC018FB7A8
:100A8000F8948FBF2281338184819581281B390B93
:100A9000C9010895FC018FB7F894158214828FBFA5
:100AA0000895379A359886B1887F866086B987B170
:100AB0008F73806487B93D98339A109208017894B7
:100AC000089533983798089596B1987F982B96B9E2
:100AD000089597B18295880F880F807C9F73982B1B
:100AE00097B9089597B18F71907E892B87B9089532
:100AF000349A369A089586B1807408951092080148
:100B000097B18F71907E892B87B9349A369A36992E
:100B1000FECF24B145B1942F80E030E0282B392B53
:100B2000C90108950E947E059695879596958795AB
:100B300008951F920F920FB60F9211248F938FEF8B
:100B4000809308018F910F900FBE0F901F90189502
:100B5000089583B7887F826083BF12BE89B78160A2
:100B600089BF1092090110920A0110920B01109294
:100B70000C0108958EB5887F83608EBD1DBC1CBCA2
:100B800089B7846089BF089585B5887F846085BDF5
:100B900014BC89B7806489BF1092110110921201B0
:100BA0001092130110921401089580E090E0FC016E
:100BB000EE0FFF1FEC51FF4F11821082019688301B
:100BC0009105A9F70E94A9050E94BA050E94C405D3
:100BD0007894089593B7987F982B93BF08959EB506
:100BE000987F982B9EBD089595B5987F982B95BDBD
:100BF000089583B7E82FF0E0E770F070EE0FFF1F65
:100C0000EC55FF4F25913491C90108958EB5E82F19
:100C1000F0E0E770F070EE0FFF1FEC55FF4F2591ED
:100C20003491C901089585B5E82FF0E0E770F070C0
:100C3000EE0FFF1FE055FF4F25913491C901089534
:100C4000883040F4E82FF0E0EE0FFF1FEC51FF4F2B
:100C5000718360830895883040F4E82FF0E0EE0F50
:100C6000FF1FEC51FF4F118210820895EF92FF9207
:100C70000F931F93CF93DF93EC0112B710920D01E6
:100C800010920E0110920F011092100183B7E82FFD
:100C9000F0E0E770F070EE0FFF1FEC55FF4F25916D
:100CA000349140E050E060E074E284EF90E00E9414
:100CB0003E09B901CA01693B2DE8720726E08207A7
:100CC00020E09207A0F437E2C131D30780F49E01FF
:100CD00040E050E00E94E90828EE33E040E050E0B8
:100CE0000E941C09C901DA01BC01CD0121C028EE16
:100CF00033E040E050E00E941C09CA01B9019E01A6
:100D000040E050E00E94E90813C080910D019091ED
:100D10000E01A0910F01B091100185B78F7485BFAE
:100D200085B7806485BF889585B78F7B85BF08C0F0
:100D30009B01AC01210F311D411D511D79018A011B
:100D400020910D0130910E0140910F015091100141
:100D500082B790E0A0E0B0E0542F432F322F22273B
:100D6000822B932BA42BB52B8E159F05A007B107C3
:100D700060F2DF91CF911F910F91FF90EF90089556
:100D80001092090110920A0110920B0110920C01AD
:100D900008952091090130910A0140910B01509171
:100DA0000C01B901CA0108951092110110921201AB
:100DB00010921301109214010895209111013091A5
:100DC00012014091130150911401B901CA01089513
:100DD000893031F48FB582608FBD8FB58E7F0AC0A8
:100DE0008A3019F48FB5826002C08FB58D7F8FBDB8
:100DF0008FB581608FBD1BBC1ABC19BC18BC08958F
:100E00002FB52E7F2FBD2FB522602FBD2EB52860A8
:100E10002EBD2EB520612EBD97BD86BD1BBC1ABC54
:100E200019BC18BC08958FB58D7F8FBD8FB58E7F8F
:100E30008FBD8FB58F778FBD8FB58F7B8FBD8FB5F2
:100E40008F7D8FBD8FB58F7E8FBD08958FB58068E4
:100E50008FBD8FB58F7B8FBD08958FB580628FBD9D
:100E60008FB58F7E8FBD08958FB58F778FBD8FB56E
:100E70008F7B8FBD08958FB58F7D8FBD8FB58F7E92
:100E80008FBD08959BBD8ABD089599BD88BD089505
:100E90001F920F920FB60F9211242F933F934F93EF
:100EA0005F936F937F938F939F93AF93BF93EF93D2
:100EB000FF938091090190910A01A0910B01B091DB
:100EC0000C010196A11DB11D8093090190930A01A7
:100ED000A0930B01B0930C0180910D0190910E0134
:100EE000A0910F01B09110010196A11DB11D809339
:100EF0000D0190930E01A0930F01B093100180910A
:100F0000E4009091E500892B29F0E091E400F09154
:100F1000E5000995FF91EF91BF91AF919F918F915E
:100F20007F916F915F914F913F912F910F900FBEE5
:100F30000F901F9018951F920F920FB60F921124C9
:100F40002F933F934F935F936F937F938F939F93D1
:100F5000AF93BF93EF93FF938091E6009091E700EA
:100F6000892B29F0E091E600F091E7000995FF91C7
:100F7000EF91BF91AF919F918F917F916F915F9111
:100F80004F913F912F910F900FBE0F901F9018958A
:100F90001F920F920FB60F9211242F933F934F93EE
:100FA0005F936F937F938F939F93AF93BF93EF93D1
:100FB000FF938091110190911201A0911301B091C2
:100FC00014010196A11DB11D80931101909312018E
:100FD000A0931301B09314018091EE009091EF0063
:100FE000892B29F0E091EE00F091EF000995FF9137
:100FF000EF91BF91AF919F918F917F916F915F9191
:101000004F913F912F910F900FBE0F901F90189509
:101010001F920F920FB60F9211242F933F934F936D
:101020005F936F937F938F939F93AF93BF93EF9350
:10103000FF938091F2009091F300892B29F0E091C9
:10104000F200F091F3000995FF91EF91BF91AF91FC
:101050009F918F917F916F915F914F913F912F91D0
:101060000F900FBE0F901F9018951F920F920FB602
:101070000F9211242F933F934F935F936F937F931E
:101080008F939F93AF93BF93EF93FF938091E8006B
:101090009091E900892B29F0E091E800F091E900B6
:1010A0000995FF91EF91BF91AF919F918F917F91A2
:1010B0006F915F914F913F912F910F900FBE0F90C5
:1010C0001F9018951F920F920FB60F9211242F9315
:1010D0003F934F935F936F937F938F939F93AF93C0
:1010E000BF93EF93FF938091EA009091EB00892BDF
:1010F00029F0E091EA00F091EB000995FF91EF9162
:10110000BF91AF919F918F917F916F915F914F911F
:101110003F912F910F900FBE0F901F9018951F9227
:101120000F920FB60F9211242F933F934F935F931B
:101130006F937F938F939F93AF93BF93EF93FF939F
:101140008091EC009091ED00892B29F0E091EC006A
:10115000F091ED000995FF91EF91BF91AF919F91B3
:101160008F917F916F915F914F913F912F910F9050
:101170000FBE0F901F9018951F920F920FB60F92EF
:1011800011242F933F934F935F936F937F938F938C
:101190009F93AF93BF93EF93FF938091F000909153
:1011A000F100892B29F0E091F000F091F100099510
:1011B000FF91EF91BF91AF919F918F917F916F912F
:1011C0005F914F913F912F910F900FBE0F901F9005
:1011D0001895629FD001739FF001829FE00DF11D71
:1011E000649FE00DF11D929FF00D839FF00D749FA1
:1011F000F00D659FF00D9927729FB00DE11DF91F4D
:10120000639FB00DE11DF91FBD01CF0111240895A9
:10121000AA1BBB1B51E107C0AA1FBB1FA617B7071C
:1012200010F0A61BB70B881F991F5A95A9F7809538
:101230009095BC01CD010895A1E21A2EAA1BBB1BFB
:10124000FD010DC0AA1FBB1FEE1FFF1FA217B30792
:10125000E407F50720F0A21BB30BE40BF50B661FA8
:10126000771F881F991F1A9469F76095709580956C
:1012700090959B01AC01BD01CF01089597FB092E0C
:1012800005260ED057FD04D0D7DF0AD0001C38F455
:1012900050954095309521953F4F4F4F5F4F0895A2
:1012A000F6F790958095709561957F4F8F4F9F4F82
:0612B0000895F894FFCF41
:00000001FF
