:100000000C942A000C9434000C9434000C943400AA
:100010000C9434000C9434000C9434000C94340090
:100020000C9434000C9434000C9434000C94340080
:100030000C9434000C9434000C9434000C94340070
:100040000C9434000C9434000C9434000C94340060
:100050000C94340011241FBECFE5D4E0DEBFCDBF29
:100060000E9436000C9467000C940000B89A88B384
:1000700091E0892788BBB998C19ABA9A40E050E0CC
:1000800080E090E020E030E071E064E004C040E017
:1000900050E020E030E0B199FECF0196E1E0853FED
:1000A0009E0774F041155105B1F788B3872788BBC7
:1000B00088B3862788BB41E050E080E090E0EBCF3A
:1000C0002F5F3F4FE1E0253F3E070CF7E4CFF89468
:0200D000FFCF60
:00000001FF
