:100000000C942A000C9434000C9434000C943400AA
:100010000C9434000C9434000C9434000C94340090
:100020000C9434000C9434000C9434000C94340080
:100030000C9434000C9434000C9434000C94340070
:100040000C9434000C9434000C9434000C94340060
:100050000C94340011241FBECFE5D4E0DEBFCDBF29
:100060000E9436000C9460000C94000081B38FEF66
:1000700081BB8FB5826C8FBD8EB58D618EBD8FE1DA
:100080009EE497BD86BD20E931E086B597B58052E4
:1000900093409BBD8ABD88EE93E0F9013197F1F75B
:1000A0000197D9F786B597B5805293409BBD8ABD1D
:1000B00088EE93E0F9013197F1F70197D9F7E5CF91
:0400C000F894FFCFE2
:00000001FF
