:100000000C9433000C9450000C9450000C9450004D
:100010000C9450000C9450000C9450000C94500020
:100020000C9450000C9450000C9450000C94500010
:100030000C9450000C9441010C9450000C948601D7
:100040000C94F4000C9450000C9450000C9450004C
:100050000C94500030313233343536373839414220
:1000600043444546000011241FBECFE5D8E0DEBF63
:10007000CDBF10E0A0E6B0E0E8E9FBE002C00590EB
:100080000D92A037B107D9F711E0A0E7B0E001C0A9
:100090001D92A930B107E1F70E948C000C94CA05AB
:1000A0000C940000959A0000000082B3807C82BB13
:1000B000089517BA979A82B3887F82BB02C00E94C4
:1000C0005200C799FCCF8FEF87BB08951F93182F5D
:1000D0000E94590018BB82B38B7782BB0E945200EA
:1000E00018BA1F9108951F93182F0E94590018BB2A
:1000F0009798929A0E94520018BA1F910895CF9330
:10010000DF93EC0103C021960E947300888188234D
:10011000D1F7DF91CF9108951F9381B3846A81BB9A
:1001200080E395E70197F1F781E00E94660080EA9D
:100130009FE00197F1F788E30E94660015E8812FA0
:100140008A95F1F78EE00E9466001A95F1F780E635
:1001500090E00E947F00FFCF379A359886B1887F64
:10016000866086B987B18F73806487B93D98339A6A
:100170001092F4007894089533983798089596B1C2
:10018000987F982B96B9089597B18295880F880F1C
:10019000807C9F73982B97B9089597B18F71907E4B
:1001A000892B87B90895349A369A089586B1807458
:1001B00008951092F40097B18F71907E892B87B9C2
:1001C000349A369A3699FECF24B145B1942F80E007
:1001D00030E0282B392BC90108950E94D90096954B
:1001E00087959695879508951F920F920FB60F9257
:1001F00011248F938FEF8093F4008F910F900FBE97
:100200000F901F9018959093F1008093F00008953F
:100210009B01AC01605C7D4B804F9F4FF3E0660F0C
:10022000771F881F991FFA95D1F7E4E0220F331F3B
:10023000441F551FEA95D1F70E94A8052150304070
:1002400029B930BD089586EF90E008958FEF90E0D2
:100250000895982F8091F5008823E1F39CB91092BE
:10026000F50008951092FB001092FA000895809115
:10027000FA009091FB00892B11F080E008958FEF38
:1002800008951F920F920FB60F9211242F933F9350
:100290004F935F936F937F938F939F93AF93BF938E
:1002A000EF93FF936CB18091F0009091F100892B56
:1002B00039F0E091F000F091F100862F09950FC020
:1002C00086EF90E00E948C04882349F48091070116
:1002D0009091080101969093080180930701FF9186
:1002E000EF91BF91AF919F918F917F916F915F91AE
:1002F0004F913F912F910F900FBE0F901F90189527
:10030000682F8FEF90E00E948C0408951F920F9247
:100310000FB60F9211242F933F934F935F936F93D8
:100320007F938F939F93AF93BF93EF93FF938091AE
:10033000FE00882371F08091030190910401892BC4
:1003400031F08FEF90E00E9423048CB905C0109229
:10035000FE008FEF8093F500FF91EF91BF91AF9179
:100360009F918F917F916F915F914F913F912F91CD
:100370000F900FBE0F901F9018958FEF8093FE0087
:100380008FEF90E00E942304982F8091F50088233E
:10039000E1F39CB91092F5000895CF93DF93EC013F
:1003A0008091F8009091F900892B69F08091FA0012
:1003B0009091FB00892B39F086EF90E00E94230496
:1003C00088838FEF01C080E0DF91CF910895DF93A4
:1003D000CF930F92CDB7DEB7CE0101960E94CD012B
:1003E000882319F42FEF3FEF03C08981282F30E0D5
:1003F000C9010F90CF91DF91089586EF90E060E7FB
:1004000070E040E450E00E9416048FEF90E060EB53
:1004100070E040E450E00E94160408950E94FD013F
:100420001092F1001092F00088ED8AB960E875E250
:1004300080E090E00E9408018FEF8093F500109219
:10044000FE0010920801109207017894089590938D
:10045000F3008093F20008951F93182F8A3031F42F
:10046000E091F200F091F3008DE00995E091F20047
:10047000F091F300812F09951F910895CF93DF9399
:10048000EC01009721F406C021960E942C0288817D
:100490008823D1F7DF91CF910895EF92FF920F93C8
:1004A0001F93CF93DF938C017A010097E9F020E04E
:1004B00030E02617370738F4F80181918F012F5F5C
:1004C0003F4F8823B1F7C0E0D0E00BC0F801808136
:1004D000882319F00F5F1F4F01C080E20E942C0299
:1004E0002196CE15DF0590F3DF91CF911F910F91EB
:1004F000FF90EF900895CF93DF93EC01009719F4EC
:1005000007C00E942C02FE01219684918823C9F71E
:10051000DF91CF9108958AE00E942C020895E82F80
:10052000F0E0EF70F070EC5AFF4FE4918E2F0E94D4
:100530002C0208951F93182F82958F700E948F02AE
:10054000812F0E948F021F9108951F93182F892FCA
:100550000E949A02812F0E949A021F910895EF92A1
:10056000FF920F931F937B018C01C801AA27BB2721
:100570000E94A502C7010E94A5021F910F91FF9042
:10058000EF9008952F923F924F925F926F927F92D9
:100590008F929F92AF92BF92CF92DF92EF92FF9293
:1005A0000F931F93DF93CF93CDB7DEB7A3970FB60B
:1005B000F894DEBF0FBECDBF6AA3242E2BA3370154
:1005C0004801442351F017FF08C0EE24FF2487019F
:1005D000E618F7080809190902C0840173012AA165
:1005E000215090E0211091E0291B29A318A2A82EE8
:1005F000BB24CC24DD24C801B701A60195010E94CB
:10060000A805FB01EF70F070EC5AFF4F64916F8FFB
:10061000C801B701A60195010E94A805C901DA0128
:100620007C018D019EE1492E512C4C0E5D1E39A09E
:1006300025C0E114F10401051105C9F0C801B70195
:10064000A60195010E94A805FB01EF70F070EC5A1D
:10065000FF4F6491F2016083C801B701A6019501C3
:100660000E94A805C901DA017C018D0103C02BA1FC
:10067000F20120833A940894410851083320C9F6C6
:10068000CE014F968C01E9A10E1B11092220F1F039
:1006900097FE05C08DE2F80182938F0117C0C80153
:1006A0000197611471048104910419F08C018BE2AB
:1006B00002C08C0180E2F801808308C0F8018191BA
:1006C0008F010E942C02FAA1F150FAA32AA1222341
:1006D000A9F7A3960FB6F894DEBF0FBECDBFCF919A
:1006E000DF911F910F91FF90EF90DF90CF90BF901F
:1006F000AF909F908F907F906F905F904F903F90C2
:100700002F9008957F928F929F92AF92BF92CF9237
:10071000DF92EF92FF920F931F93DF93CF93CDB7AA
:10072000DEB77888C988DA8853E1E52EF12CEC0E23
:10073000FD1E14C0882381F480E090E0CF91DF910A
:100740001F910F91FF90EF90DF90CF90BF90AF90EF
:100750009F908F907F9008950E942C0296012F5FAA
:100760003F4F772021F0F6016901849103C0F60123
:10077000808169018532F1F62F5F3F4F772021F0AC
:10078000F6016901849103C0F60180816901843614
:1007900029F0883781F08336F9F606C000E117E2C8
:1007A0004AE0A42EB12C0CC0F701808122E030E099
:1007B000E20EF31ED1CF00E010E130E1A32EB12C08
:1007C00022E0822E912C8E0C9F1CF701E080F1809C
:1007D0008436B1F4F7FE11C0F094E194F108F3947B
:1007E0008DE20E942C0209C0C8016AE070E00E94FC
:1007F00094058B016230710518F0E016F106A0F344
:10080000C701B8010E949405862F0E948F02C7017C
:10081000B8010E9494057C01C801B5010E949405AD
:100820008B016115710561F7740198CFFC018FB7D9
:10083000F8947183608353834283178216821582F2
:1008400014828FBF0895DC014FB7F89414968D91F0
:100850009C911597892B11F4E0E025C016968D9197
:100860009C911797ED91FC911197E80FF91FE0818A
:10087000019617969C938E93169712962D913C9104
:1008800013978217930730F0821B930B17969C9354
:100890008E93169714968D919C91159701971596A6
:1008A0009C938E9314974FBF8E2F0895FC014FB7E2
:1008B000F8948481958168177907B0F486819781CF
:1008C000860F971F97838683228133818217930730
:1008D00020F0821B930B9783868384819581861BEE
:1008E000970B9583848302C0158214824FBF0895AD
:1008F000FC01CB012FB7F8942FBF2681378162818D
:100900007381820F931F0E9494050190F081E02D66
:10091000E80FF91F808108951F93CF93DF93EC01B7
:10092000162F4FB7F8942C813D816A817B81261761
:10093000370798F48E819F81820F931F0E94940540
:10094000E881F981E80FF91F10838C819D81019660
:100950009D838C834FBF8FEF02C04FBF80E0DF913C
:10096000CF911F910895FC018FB7F8948FBF22811A
:10097000338184819581281B390BC9010895FC01BD
:100980008FB7F894158214828FBF0895282F66239D
:1009900011F0C49A01C0C498C59887B38F6087BB13
:1009A00098B3907F822F82958F70892B88BBC69ACF
:1009B00000C0C6982F70292B28BBC69A00C0C698C5
:1009C0009F6098BB0895882311F0C49A01C0C49811
:1009D000C59A87B3807F87BBC69A00C096B3C69876
:1009E00000C0C69A00C086B38F709295907FC6985B
:1009F000892B089580E00E94E30487FDFBCF88E007
:100A000090E00197F1F780E00E94E30408951F93BE
:100A1000182F0E94FA04812F60E00E94C6041F91E3
:100A200008951F93182F0E94FA04812F61E00E94FD
:100A3000C6041F910895662311F4805801C08054A4
:100A40000E94070508950E94FA0490E0089581E04D
:100A50000E940705089582E00E94070508951F93EC
:100A6000182F0E94FA041A3049F4803410F080E004
:100A700001C080E480580E94070504C0812F61E016
:100A80000E94C6041F910895CF93DF93EC0102C02A
:100A90000E942F0589918823D9F7DF91CF9108957E
:100AA000CF93DF93EC0102C00E942F05FE01219637
:100AB00084918823C9F7DF91CF9108951F93182F50
:100AC00087B38F6787BB80E09AEF0197F1F7C19AF0
:100AD000C09AC69A00C0C69880E09EE40197F1F7DC
:100AE000C69A00C0C69880E091E0FC013197F1F70A
:100AF000C69A00C0C698FC013197F1F7C098C69A13
:100B000000C0C6980197F1F788E20E94070588E0C7
:100B10000E9407050E94270586E00E940705812F95
:100B20000E9407051F910895AA1BBB1B51E107C036
:100B3000AA1FBB1FA617B70710F0A61BB70B881F6D
:100B4000991F5A95A9F780959095BC01CD010895FC
:100B5000A1E21A2EAA1BBB1BFD010DC0AA1FBB1FC1
:100B6000EE1FFF1FA217B307E407F50720F0A21B33
:100B7000B30BE40BF50B661F771F881F991F1A94A0
:100B800069F760957095809590959B01AC01BD01CA
:080B9000CF010895F894FFCF96
:100B98004E65776269654861636B2E636F6D00000F
:00000001FF
