:100000000C942A000C9434000C9434000C943400AA
:100010000C9434000C9434000C9434000C94340090
:100020000C9434000C9434000C9434000C94340080
:100030000C9434000C9434000C9434000C94340070
:100040000C9434000C9434000C9434000C94340060
:100050000C94340011241FBECFE5D4E0DEBFCDBF29
:100060000E9445000C945A000C94000089B990BD80
:1000700086E880BD88E98AB908955F9BFECF8CB180
:1000800008955D9BFECF8CB908958E9A83E389B95C
:1000900010BC86E880BD88E98AB9FFCF5F9BFECFA0
:1000A0008CB15D9BFECF8CB9813611F4969A089580
:0800B00096980895F894FFCF23
:00000001FF
