:100000000C942A000C943F000C943F000C943F0089
:100010000C943F000C943F000C943F000C943F0064
:100020000C943F000C943F000C943F000C943F0054
:100030000C943F000C943F000C9441000C943F0042
:100040000C943F000C943F000C943F000C943F0034
:100050000C943F0011241FBECFE5D4E0DEBFCDBF1E
:1000600010E0A0E6B0E0E6E4F4E002C005900D92F6
:10007000A23BB107D9F70E9496000C9421020C9480
:1000800000001F920F920FB60F9211242F933F93EF
:100090004F935F936F937F938F939F93AF93BF9390
:1000A000CF93DF93EF93FF9334B125B1922F80E08C
:1000B000C32FD0E0C82BD92B87B1803C59F1813CAC
:1000C00059F489E061E00E949401CE0164E070E09F
:1000D0000E942B0180EC87B9369A20E233E040E998
:1000E00051E0CA010197F1F721503040D1F7FF915B
:1000F000EF91DF91CF91BF91AF919F918F917F91C0
:100100006F915F914F913F912F910F900FBE0F9084
:100110001F90189589E060E00E949401CE0164E090
:1001200070E00E942B0181EC87B9D6CF82E00E945B
:10013000B30180E060E00E94940180E690E00E94BC
:10014000070180E061E00E94940189E690E00E944E
:10015000070186B1876086B987B1806C87B9339A09
:10016000379A7894369AFFCF87B3807F87BB969A69
:10017000939882E08A95F1F722E035E0C49A822FC5
:100180008A95F1F786B38295807F922F9A95F1F741
:10019000C498932F9A95F1F7C49A922F9A95F1F7F4
:1001A00096B3922F9A95F1F7C498932F9A95F1F7F9
:1001B00087FDE4CF969887B38F6087BB0895282F7B
:1001C000662319F1939A82E08A95F1F7C49A88B36D
:1001D000922F92959F70807F982B98BB95E0892FE6
:1001E0008A95F1F7C498892F8A95F1F7C49A88B354
:1001F0002F70807F822B88BB892F8A95F1F7C49856
:100200009A95F1F70E94B40008959398DCCFCF93AC
:10021000DF93EC018881882391F41AC021968881AC
:100220008053883070F085E261E00E94DF008881B1
:1002300061E00E94DF0021968881882349F08532A1
:1002400069F361E00E94DF00219688818823B9F775
:10025000DF91CF910895EF92FF920F931F93DF9359
:10026000CF9300D000D00F92CDB7DEB79C018B01A9
:100270007E010894E11CF11C85E0F70111928A953A
:10028000E9F72115310591F0FE013596C9016AE0C3
:1002900070E00E94FA018083C9016AE070E00E9468
:1002A000FA019B0131976115710581F7FFEF0F3F4F
:1002B0001F0749F125E030E0201B310B25303105C7
:1002C000B4F4F701E20FF31F808189010F5F1F4F24
:1002D000E00EF11E05C0F70181917F010F5F1F4FF6
:1002E000805D61E00E94DF0005301105A4F30F90EE
:1002F0000F900F900F900F90CF91DF911F910F9162
:10030000FF90EF9008958981882359F420E030E030
:100310002F5F3F4FF701E20FF31F80818823C1F366
:10032000CDCF20E030E0D1CF843150F4623049F0BD
:10033000633099F0613059F0806860E00E94DF001E
:1003400008958C5E806860E00E94DF00F9CF8064D1
:10035000806860E00E94DF00F3CF8C5A806860E024
:100360000E94DF00EDCF1F93CF93DF93182F2CE275
:1003700031E040E951E0CA010197F1F721503040E6
:10038000D1F787B38F6087BBBC9A8B9A8E9A88B35C
:10039000807F88BBC4989698939881E08A95F1F7FE
:1003A000C49AC19A85E0982F9A95F1F7C4988A95D6
:1003B000F1F70E94B400812F8C6060E00E94DF00A2
:1003C00088E260E00E94DF0080E460E00E94DF00DD
:1003D000C2E7D0E0899161E00E94DF0080E0C23B8B
:1003E000D807C1F780E060E00E949401DF91CF91CF
:1003F0001F91089597FB092E07260AD077FD04D098
:100400000CD006D000201AF4709561957F4F0895A6
:10041000F6F7909581959F4F0895AA1BBB1B51E15C
:1004200007C0AA1FBB1FA617B70710F0A61BB70B64
:10043000881F991F5A95A9F780959095BC01CD0109
:060440000895F894FFCFBF
:1004460073656E736F72313A0073656E736F7232D5
:100456003A000C12120C000000000C1204081E00D8
:1004660000000A15110A040000000305090B0B1809
:1004760018001F0E0E0404040404010105051515D9
:1004860015000E11111F1F1F1F00000000000000A5
:02049600000064
:00000001FF
