:100000000C942A000C943F000C943F000C943F0089
:100010000C943F000C943F000C943F000C943F0064
:100020000C943F000C943F000C943F000C943F0054
:100030000C943F000C943F000C943F000C943F0044
:100040000C943F000C943F000C943F000C943F0034
:100050000C943F0011241FBECFE5D4E0DEBFCDBF1E
:1000600010E0A0E6B0E0EAE3F2E002C005900D92F5
:10007000A038B107D9F70E9401010C941B010C9420
:100080000000969888230CF4969A959886FD959A88
:10009000949885FD949A939884FD939AC19A85E0EB
:1000A0008A95F1F70000C19885E08A95F1F7000084
:1000B0000895CF93C82FC09AC1980E9441008C2FF9
:1000C0008295807F0E944100CF9108950F931F93E6
:1000D000CF93DF9300D0CDB7DEB78C011A8219829F
:1000E000E981FA81E80FF91F80818823C9F0E9814D
:1000F000FA81E00FF11F80810E94590089819A8165
:1001000001969A8389838FE391E00197F1F700C00C
:100110000000E981FA81E00FF11F80818111E7CFB2
:100120000F900F90DF91CF911F910F910895CF9372
:10013000C82FC098C1980E9441008C2F8295807F63
:100140000E944100CF9108952FEF81EE94E021505D
:1001500080409040E1F700C00000C098C19880E363
:100160000E9441008FE39CE90197F1F700C0000075
:1001700080E30E9441008FE193E00197F1F700C016
:10018000000080E30E9441008FE193E00197F1F7C6
:1001900000C0000088E20E9441008FE391E00197D7
:1001A000F1F700C0000088E20E9497008FE391E021
:1001B0000197F1F700C0000088E00E9497008FE3EC
:1001C00091E00197F1F700C0000081E00E949700E4
:1001D0008FE79EE30197F1F700C0000086E00E94E0
:1001E00097008FE391E00197F1F700C000008CE0E9
:1001F0000E9497008FE391E00197F1F700C00000A3
:1002000008958E9A8D9A8C9A8B9AB99AB89A0E9470
:10021000A40081E790E00E94660080EC0E949700B5
:100220008FE391E00197F1F700C0000080E690E0D5
:0A0230000E946600FFCFF894FFCF94
:10023A004C43442D4156522D346420286763632968
:10024A0000446F6E616C64205765696D616E0000D1
:00000001FF
