:100000000C9441000C945E000C945E000C94A505C9
:100010000C94B1040C9478050C941E050C944B05BB
:100020000C9484040C9431040C945E000C94FB003A
:100030000C945E000C9440010C941A060C945E0023
:100040000C945E000C945E000C945E000C94F10421
:100050000C945E0000000100080040000001000454
:1000600000000100080020004000800000010004A2
:1000700030313233343536373839414243444546DE
:10008000000011241FBECFE5D4E0DEBFCDBF10E0DD
:10009000A0E6B0E0E4E1F1E102C005900D92A037E6
:1000A000B107D9F711E0A0E7B0E001C01D92A53279
:1000B000B107E1F70E949A000C9488080C940000A4
:1000C000959A0000000082B3807C82BB089517BA25
:1000D000979A82B3887F82BB02C00E946000C79952
:1000E000FCCF8FEF87BB08951F93182F0E946700E6
:1000F00018BB82B38B7782BB0E94600018BA1F9135
:1001000008951F93182F0E94670018BB9798929A22
:100110000E94600018BA1F910895CF93DF93EC01FD
:1001200003C021960E94810088818823D1F7DF9146
:10013000CF9108950F931F9381B3846A81BB80E6AA
:100140009AEE0197F1F781E00E94740080E49FE14C
:100150000197F1F788E30E94740008EC10E0C801F1
:100160000197F1F78EE00E947400C8010197F1F742
:1001700080E690E00E948D00FFCF9093F100809385
:10018000F00008959B01AC0160587B47814E9F4F62
:10019000F3E0660F771F881F991FFA95D1F7E4E007
:1001A000220F331F441F551FEA95D1F70E944B08B9
:1001B0002150304029B930BD089585E091E008957F
:1001C0008EE091E00895982F809104018823E1F357
:1001D0009CB910920401089510920A01109209012D
:1001E00008958091090190910A01892B11F080E016
:1001F00008958FEF08951F920F920FB60F9211245A
:100200002F933F934F935F936F937F938F939F931E
:10021000AF93BF93EF93FF936CB18091F0009091F7
:10022000F100892B39F0E091F000F091F100862F78
:1002300009950FC085E091E00E945702882349F498
:100240008091160190911701019690931701809368
:100250001601FF91EF91BF91AF919F918F917F9187
:100260006F915F914F913F912F910F900FBE0F9023
:100270001F901895682F8EE091E00E945702089514
:100280001F920F920FB60F9211242F933F934F930B
:100290005F936F937F938F939F93AF93BF93EF93EE
:1002A000FF9380910D01882371F08091120190914C
:1002B0001301892B31F08EE091E00E94EE018CB9A0
:1002C00005C010920D018FEF80930401FF91EF9113
:1002D000BF91AF919F918F917F916F915F914F915E
:1002E0003F912F910F900FBE0F901F9018958FEF99
:1002F00080930D018EE091E00E94EE01982F809195
:1003000004018823E1F39CB9109204010895CF936E
:10031000DF93EC018091070190910801892B69F02E
:100320008091090190910A01892B39F085E091E0D3
:100330000E94EE0188838FEF01C080E0DF91CF91B2
:100340000895DF93CF930F92CDB7DEB7CE0101961C
:100350000E948701882319F42FEF3FEF03C08981A2
:10036000282F30E0C9010F90CF91DF91089585E0EB
:1003700091E060E770E040E450E00E94E1018EE02F
:1003800091E060EB70E040E450E00E94E1010895EC
:100390000E94B7011092F1001092F00088ED8AB926
:1003A00060E875E280E090E00E94C2008FEF8093E9
:1003B000040110920D011092170110921601789409
:1003C0000895FC018FB7F89471836083538342834F
:1003D00017821682158214828FBF0895DC014FB7F1
:1003E000F89414968D919C911597892B11F4E0E067
:1003F00025C016968D919C911797ED91FC911197C0
:10040000E80FF91FE081019617969C938E9316973B
:1004100012962D913C9113978217930730F0821B0F
:10042000930B17969C938E93169714968D919C918F
:100430001597019715969C938E9314974FBF8E2F07
:100440000895FC014FB7F894848195816817790766
:10045000B0F486819781860F971F978386832281C8
:1004600033818217930720F0821B930B9783868337
:1004700084819581861B970B9583848302C01582A6
:1004800014824FBF0895FC01CB012FB7F8942FBF02
:100490002681378162817381820F931F0E94370802
:1004A0000190F081E02DE80FF91F808108951F93DE
:1004B000CF93DF93EC01162F4FB7F8942C813D8139
:1004C0006A817B812617370798F48E819F81820F7E
:1004D000931F0E943708E881F981E80FF91F108304
:1004E0008C819D8101969D838C834FBF8FEF02C0CD
:1004F0004FBF80E0DF91CF911F910895FC018FB72E
:10050000F8948FBF2281338184819581281B390B18
:10051000C9010895FC018FB7F894158214828FBF2A
:100520000895089583B7887F826083BF12BE89B71C
:10053000816089BF109218011092190110921A015E
:1005400010921B0108958EB5887F83608EBD1DBCFF
:100550001CBC89B7846089BF089585B5887F846095
:1005600085BD14BC89B7806489BF109220011092A8
:1005700021011092220110922301089580E090E061
:10058000FC01EE0FFF1FEE50FF4F1182108201960B
:1005900088309105A9F70E9492020E94A3020E944E
:1005A000AD027894089593B7987F982B93BF0895E0
:1005B0009EB5987F982B9EBD089595B5987F982BF2
:1005C00095BD089583B7E82FF0E0E770F070EE0F67
:1005D000FF1FEC5AFF4F25913491C90108958EB544
:1005E000E82FF0E0E770F070EE0FFF1FEC5AFF4FBE
:1005F00025913491C901089585B5E82FF0E0E770A1
:10060000F070EE0FFF1FE05AFF4F25913491C901A2
:100610000895883040F4E82FF0E0EE0FFF1FEE5011
:10062000FF4F718360830895883040F4E82FF0E035
:10063000EE0FFF1FEE50FF4F118210820895EF92D0
:10064000FF920F931F93CF93DF93EC0112B7109299
:100650001C0110921D0110921E0110921F0183B700
:10066000E82FF0E0E770F070EE0FFF1FEC5AFF4F3D
:100670002591349140E050E060E074E284EF90E036
:100680000E946D08B901CA01693B2DE8720726E096
:10069000820720E09207A0F437E2C131D30780F44B
:1006A0009E0140E050E00E94180828EE33E040E050
:1006B00050E00E944B08C901DA01BC01CD0121C004
:1006C00028EE33E040E050E00E944B08CA01B90137
:1006D0009E0140E050E00E94180813C080911C0168
:1006E00090911D01A0911E01B0911F0185B78F74DB
:1006F00085BF85B7806485BF889585B78F7B85BFAB
:1007000008C09B01AC01210F311D411D511D790114
:100710008A0120911C0130911D0140911E015091D0
:100720001F0182B790E0A0E0B0E0542F432F322F9A
:100730002227822B932BA42BB52B8E159F05A00768
:10074000B10760F2DF91CF911F910F91FF90EF9071
:100750000895109218011092190110921A01109226
:100760001B010895209118013091190140911A013F
:1007700050911B01B901CA010895109220011092F5
:10078000210110922201109223010895209120014D
:10079000309121014091220150912301B901CA01F8
:1007A0000895893031F48FB582608FBD8FB58E7F0B
:1007B0000AC08A3019F48FB5826002C08FB58D7F70
:1007C0008FBD8FB581608FBD1BBC1ABC19BC18BC16
:1007D00008952FB52E7F2FBD2FB522602FBD2EB5CA
:1007E00028602EBD2EB520612EBD97BD86BD1BBCD9
:1007F0001ABC19BC18BC08958FB58D7F8FBD8FB5FD
:100800008E7F8FBD8FB58F778FBD8FB58F7B8FBD5F
:100810008FB58F7D8FBD8FB58F7E8FBD08958FB5BE
:1008200080688FBD8FB58F7B8FBD08958FB5806237
:100830008FBD8FB58F7E8FBD08958FB58F778FBD9C
:100840008FB58F7B8FBD08958FB58F7D8FBD8FB591
:100850008F7E8FBD08959BBD8ABD089599BD88BDCB
:1008600008951F920F920FB60F9211242F933F936A
:100870004F935F936F937F938F939F93AF93BF93A8
:10088000EF93FF938091180190911901A0911A01A3
:10089000B0911B010196A11DB11D80931801909389
:1008A0001901A0931A01B0931B0180911C01909132
:1008B0001D01A0911E01B0911F010196A11DB11D46
:1008C00080931C0190931D01A0931E01B0931F0102
:1008D0008091F2009091F300892B29F0E091F200D1
:1008E000F091F3000995FF91EF91BF91AF919F9126
:1008F0008F917F916F915F914F913F912F910F90C9
:100900000FBE0F901F9018951F920F920FB60F9267
:1009100011242F933F934F935F936F937F938F9304
:100920009F93AF93BF93EF93FF938091F4009091C7
:10093000F500892B29F0E091F400F091F50009957C
:10094000FF91EF91BF91AF919F918F917F916F91A7
:100950005F914F913F912F910F900FBE0F901F907D
:1009600018951F920F920FB60F9211242F933F9359
:100970004F935F936F937F938F939F93AF93BF93A7
:10098000EF93FF938091200190912101A09122018A
:10099000B09123010196A11DB11D80932001909378
:1009A0002101A0932201B09323018091FC0090913A
:1009B000FD00892B29F0E091FC00F091FD000995E4
:1009C000FF91EF91BF91AF919F918F917F916F9127
:1009D0005F914F913F912F910F900FBE0F901F90FD
:1009E00018951F920F920FB60F9211242F933F93D9
:1009F0004F935F936F937F938F939F93AF93BF9327
:100A0000EF93FF938091000190910101892B29F0D0
:100A1000E0910001F09101010995FF91EF91BF91E3
:100A2000AF919F918F917F916F915F914F913F9186
:100A30002F910F900FBE0F901F9018951F920F923D
:100A40000FB60F9211242F933F934F935F936F93A1
:100A50007F938F939F93AF93BF93EF93FF93809177
:100A6000F6009091F700892B29F0E091F600F091C3
:100A7000F7000995FF91EF91BF91AF919F918F91F1
:100A80007F916F915F914F913F912F910F900FBE8A
:100A90000F901F9018951F920F920FB60F9211246E
:100AA0002F933F934F935F936F937F938F939F9376
:100AB000AF93BF93EF93FF938091F8009091F9006B
:100AC000892B29F0E091F800F091F9000995FF9148
:100AD000EF91BF91AF919F918F917F916F915F91B6
:100AE0004F913F912F910F900FBE0F901F9018952F
:100AF0001F920F920FB60F9211242F933F934F9393
:100B00005F936F937F938F939F93AF93BF93EF9375
:100B1000FF938091FA009091FB00892B29F0E091DE
:100B2000FA00F091FB000995FF91EF91BF91AF9111
:100B30009F918F917F916F915F914F913F912F91F5
:100B40000F900FBE0F901F9018951F920F920FB627
:100B50000F9211242F933F934F935F936F937F9343
:100B60008F939F93AF93BF93EF93FF938091FE007A
:100B70009091FF00892B29F0E091FE00F091FF0099
:100B80000995FF91EF91BF91AF919F918F917F91C7
:100B90006F915F914F913F912F910F900FBE0F90EA
:100BA0001F901895379A359886B1887F866086B9E8
:100BB00087B18F73806487B93D98339A109224016E
:100BC0007894089533983798089596B1987F982B24
:100BD00096B9089597B18295880F880F807C9F738E
:100BE000982B97B9089597B18F71907E892B87B90B
:100BF0000895349A369A089586B1807408951092B3
:100C0000240197B18F71907E892B87B9349A369AD7
:100C10003699FECF24B145B1942F80E030E0282BE7
:100C2000392BC90108950E94FF05969587959695E1
:100C3000879508951F920F920FB60F9211248F93EC
:100C40008FEF809324018F910F900FBE0F901F9014
:100C50001895909303018093020108951F93182F14
:100C60008A3031F4E0910201F09103018DE00995A1
:100C7000E0910201F0910301812F09951F910895E0
:100C8000CF93DF93EC01009721F406C021960E94D8
:100C90002E0688818823D1F7DF91CF910895EF92B6
:100CA000FF920F931F93CF93DF938C017A010097EC
:100CB000E9F020E030E02617370738F4F801819199
:100CC0008F012F5F3F4F8823B1F7C0E0D0E00BC00A
:100CD000F8018081882319F00F5F1F4F01C080E267
:100CE0000E942E062196CE15DF0590F3DF91CF915D
:100CF0001F910F91FF90EF900895CF93DF93EC0138
:100D0000009719F407C00E942E06FE0121968491D7
:100D10008823C9F7DF91CF9108958AE00E942E06BB
:100D20000895E82FF0E0EF70F070E059FF4FE49184
:100D30008E2F0E942E0608951F93182F82958F7074
:100D40000E949106812F0E9491061F9108951F9382
:100D5000182F892F0E949C06812F0E949C061F91AC
:100D60000895EF92FF920F931F937B018C01C801AE
:100D7000AA27BB270E94A706C7010E94A7061F91AA
:100D80000F91FF90EF9008952F923F924F925F92B4
:100D90006F927F928F929F92AF92BF92CF92DF928B
:100DA000EF92FF920F931F93DF93CF93CDB7DEB7F0
:100DB000A3970FB6F894DEBF0FBECDBF6AA3242E53
:100DC0002BA337014801442351F017FF08C0EE243C
:100DD000FF248701E618F7080809190902C08401F1
:100DE00073012AA1215090E0211091E0291B29A331
:100DF00018A2A82EBB24CC24DD24C801B701A6016B
:100E000095010E944B08FB01EF70F070E059FF4F15
:100E100064916F8FC801B701A60195010E944B082C
:100E2000C901DA017C018D019EE1492E512C4C0E45
:100E30005D1E39A025C0E114F10401051105C9F0BA
:100E4000C801B701A60195010E944B08FB01EF7094
:100E5000F070E059FF4F6491F2016083C801B7015F
:100E6000A60195010E944B08C901DA017C018D01A0
:100E700003C02BA1F20120833A9408944108510841
:100E80003320C9F6CE014F968C01E9A10E1B110942
:100E90002220F1F097FE05C08DE2F80182938F01C8
:100EA00017C0C8010197611471048104910419F0FD
:100EB0008C018BE202C08C0180E2F801808308C0C3
:100EC000F80181918F010E942E06FAA1F150FAA338
:100ED0002AA12223A9F7A3960FB6F894DEBF0FBE6E
:100EE000CDBFCF91DF911F910F91FF90EF90DF90D9
:100EF000CF90BF90AF909F908F907F906F905F90BA
:100F00004F903F902F9008957F928F929F92AF9233
:100F1000BF92CF92DF92EF92FF920F931F93DF93D6
:100F2000CF93CDB7DEB77888C988DA8853E1E52E4C
:100F3000F12CEC0EFD1E14C0882381F480E090E0BB
:100F4000CF91DF911F910F91FF90EF90DF90CF90A5
:100F5000BF90AF909F908F907F9008950E942E0633
:100F600096012F5F3F4F772021F0F60169018491B0
:100F700003C0F601808169018532F1F62F5F3F4F92
:100F8000772021F0F6016901849103C0F601808188
:100F90006901843629F0883781F08336F9F606C076
:100FA00000E117E24AE0A42EB12C0CC0F7018081C9
:100FB00022E030E0E20EF31ED1CF00E010E130E19C
:100FC000A32EB12C22E0822E912C8E0C9F1CF701B7
:100FD000E080F1808436B1F4F7FE11C0F094E19422
:100FE000F108F3948DE20E942E0609C0C8016AE060
:100FF00070E00E9437088B016230710518F0E0162E
:10100000F106A0F3C701B8010E943708862F0E949D
:101010009106C701B8010E9437087C01C801B501DB
:101020000E9437088B016115710561F7740198CF33
:10103000629FD001739FF001829FE00DF11D649FBC
:10104000E00DF11D929FF00D839FF00D749FF00D48
:10105000659FF00D9927729FB00DE11DF91F639FE9
:10106000B00DE11DF91FBD01CF0111240895AA1B88
:10107000BB1B51E107C0AA1FBB1FA617B70710F083
:10108000A61BB70B881F991F5A95A9F780959095B5
:10109000BC01CD010895A1E21A2EAA1BBB1BFD01C4
:1010A0000DC0AA1FBB1FEE1FFF1FA217B307E40747
:1010B000F50720F0A21BB30BE40BF50B661F771F9F
:1010C000881F991F1A9469F760957095809590957F
:1010D0009B01AC01BD01CF01089597FB092E0526A8
:1010E0000ED057FD04D0D7DF0AD0001C38F450953D
:1010F0004095309521953F4F4F4F5F4F0895F6F73C
:1011000090958095709561957F4F8F4F9F4F089573
:04111000F894FFCF81
:101114004E65776269654861636B2E636F6D00008D
:00000001FF
