:100000000C942A000C9434000C9434000C943400AA
:100010000C9434000C9434000C9434000C94340090
:100020000C9434000C9434000C9434000C94340080
:100030000C9434000C9434000C9434000C94340070
:100040000C9434000C9434000C9434000C94340060
:100050000C94340011241FBECFE5D4E0DEBFCDBF29
:100060000E9464000C94B6000C940000959A000065
:10007000000082B3807C82BB089517BA969A82B33F
:10008000887F82BBC79B04C00E943600C799FCCF03
:100090008FEF87BB0895CF93C82F0E943D00C8BB48
:1000A00082B38B7B82BB0E94360018BACF91089531
:1000B000CF93C82F0E943D00C8BB9698929A0E9489
:1000C000360018BACF91089581B3846681BB2FEFB3
:1000D00089EF90E0215080409040E1F700C000009F
:1000E00081E00E944B008FE19EE40197F1F700C090
:1000F000000088E30E944B008BE291E00197F1F74A
:1001000000C000008EE00E944B008BE291E001975E
:10011000F1F700C000008EE40E94580085E60E94BE
:10012000580087E70E94580082E60E94580089E63E
:100130000E94580085E60E94580088E40E945800FA
:1001400081E60E94580083E60E9458008BE60E94D8
:1001500058008EE20E94580083E60E9458008FE605
:100160000E9458008DE60E945800FFCFF894FFCF00
:00000001FF
