:100000000C942A000C9434000C9434000C943400AA
:100010000C9434000C9434000C9434000C94340090
:100020000C9434000C9434000C9434000C94340080
:100030000C9434000C9434000C9434000C94340070
:100040000C9434000C9434000C9434000C94340060
:100050000C94340011241FBECFE5D4E0DEBFCDBF29
:100060000E9436000C9464000C94000081B38FEF62
:1000700081BB8FB5826C8FBD8EB589618EBD8FE1DE
:100080009EE497BD86BD40E0A8E1BCEF60E971E069
:1000900026B537B5842F90E0FC01EA9FC001EB9FA5
:1000A000900DFA9F900D1124820F931F99BD88BD6A
:1000B00088EE93E0FB013197F1F70197D9F74F5F95
:0C00C000433130F340E0E4CFF894FFCF70
:00000001FF
