:100000000C9435000C9447000C9447000C94470066
:100010000C9447000C9447000C9447000C94470044
:100020000C9447000C9447000C9447000C94290151
:100030000C9447000C946E010C94DC000C94470067
:100040000C9447000C9447000C9447000C94470014
:100050000C94470025640A0D0030313233343536B4
:100060003738394142434445460011241FBECFE58D
:10007000D4E0DEBFCDBF10E0A0E6B0E001C01D922D
:10008000A93FB107E1F70E945B000C94E4040C94D3
:10009000000014BA15BA8FEF81BB87EC87BB0895B7
:1000A000089594980895949A0895929A929808952C
:1000B000939A93980895CF93DF930E94F60160E896
:1000C00075E280E090E00E94F00081E191E00E9402
:1000D0000F0214BA15BA8FEF81BB87EC87BB0E9461
:1000E000940087E00E94A70081E00E94AC009498F1
:1000F000C4E5D0E081E00E94C10000D000D00F92A2
:10010000EDB7FEB7319621E0ADB7BEB711962C938F
:10011000D283C183948383830E946A030F900F90DC
:100120000F900F900F90E6CF379A359886B1887F61
:10013000866086B987B18F73806487B93D98339A9A
:100140001092E4007894089533983798089596B102
:10015000987F982B96B9089597B18295880F880F4C
:10016000807C9F73982B97B9089597B18F71907E7B
:10017000892B87B90895349A369A089586B1807488
:1001800008951092E40097B18F71907E892B87B902
:10019000349A369A3699FECF24B145B1942F80E037
:1001A00030E0282B392BC90108950E94C100969593
:1001B00087959695879508951F920F920FB60F9287
:1001C00011248F938FEF8093E4008F910F900FBED7
:1001D0000F901F9018959093E1008093E000089590
:1001E0009B01AC0160587B47814E9F4FF3E0660F47
:1001F000771F881F991FFA95D1F7E4E0220F331F6C
:10020000441F551FEA95D1F70E94C2042150304087
:1002100029B930BD089586EE90E008958FEE90E004
:100220000895982F8091E5008823E1F39CB91092FE
:10023000E50008951092EB001092EA000895809175
:10024000EA009091EB00892B11F080E008958FEF88
:1002500008951F920F920FB60F9211242F933F9380
:100260004F935F936F937F938F939F93AF93BF93BE
:10027000EF93FF936CB18091E0009091E100892BA6
:1002800039F0E091E000F091E100862F09950FC070
:1002900086EE90E00E947404882349F48091F70070
:1002A0009091F80001969093F8008093F700FF91E9
:1002B000EF91BF91AF919F918F917F916F915F91DE
:1002C0004F913F912F910F900FBE0F901F90189557
:1002D000682F8FEE90E00E94740408951F920F9291
:1002E0000FB60F9211242F933F934F935F936F9309
:1002F0007F938F939F93AF93BF93EF93FF938091DF
:10030000EE00882371F08091F3009091F400892B26
:1003100031F08FEE90E00E940B048CB905C0109272
:10032000EE008FEF8093E500FF91EF91BF91AF91C9
:100330009F918F917F916F915F914F913F912F91FD
:100340000F900FBE0F901F9018958FEF8093EE00C7
:100350008FEE90E00E940B04982F8091E500882397
:10036000E1F39CB91092E5000895CF93DF93EC017F
:100370008091E8009091E900892B69F08091EA0072
:100380009091EB00892B39F086EE90E00E940B04EF
:1003900088838FEF01C080E0DF91CF910895DF93D4
:1003A000CF930F92CDB7DEB7CE0101960E94B50173
:1003B000882319F42FEF3FEF03C08981282F30E005
:1003C000C9010F90CF91DF91089586EE90E060E62D
:1003D00070E040E450E00E94FE038FEE90E060EA9F
:1003E00070E040E450E00E94FE0308950E94E501A1
:1003F0001092E1001092E00088ED8AB960E875E2A1
:1004000080E090E00E94F0008FEF8093E500109272
:10041000EE001092F8001092F700789408959093EF
:10042000E3008093E20008951F93182F8A3031F47F
:10043000E091E200F091E3008DE00995E091E200A7
:10044000F091E300812F09951F910895CF93DF93D9
:10045000EC01009721F406C021960E9414028881C5
:100460008823D1F7DF91CF910895EF92FF920F93F8
:100470001F93CF93DF938C017A010097E9F020E07E
:1004800030E02617370738F4F80181918F012F5F8C
:100490003F4F8823B1F7C0E0D0E00BC0F801808166
:1004A000882319F00F5F1F4F01C080E20E941402E1
:1004B0002196CE15DF0590F3DF91CF911F910F911B
:1004C000FF90EF900895CF93DF93EC01009719F41C
:1004D00007C00E941402FE01219684918823C9F767
:1004E000DF91CF9108958AE00E9414020895E82FC9
:1004F000F0E0EF70F070E75AFF4FE4918E2F0E940A
:10050000140208951F93182F82958F700E9477020E
:10051000812F0E9477021F9108951F93182F892F12
:100520000E948202812F0E9482021F910895EF9201
:10053000FF920F931F937B018C01C801AA27BB2751
:100540000E948D02C7010E948D021F910F91FF90A2
:10055000EF9008952F923F924F925F926F927F9209
:100560008F929F92AF92BF92CF92DF92EF92FF92C3
:100570000F931F93DF93CF93CDB7DEB7A3970FB63B
:10058000F894DEBF0FBECDBF6AA3242E2BA3370184
:100590004801442351F017FF08C0EE24FF248701CF
:1005A000E618F7080809190902C0840173012AA195
:1005B000215090E0211091E0291B29A318A2A82E18
:1005C000BB24CC24DD24C801B701A60195010E94FB
:1005D000C204FB01EF70F070E75AFF4F64916F8F18
:1005E000C801B701A60195010E94C204C901DA0140
:1005F0007C018D019EE1492E512C4C0E5D1E39A0CF
:1006000025C0E114F10401051105C9F0C801B701C5
:10061000A60195010E94C204FB01EF70F070E75A39
:10062000FF4F6491F2016083C801B701A6019501F3
:100630000E94C204C901DA017C018D0103C02BA113
:10064000F20120833A940894410851083320C9F6F6
:10065000CE014F968C01E9A10E1B11092220F1F069
:1006600097FE05C08DE2F80182938F0117C0C80183
:100670000197611471048104910419F08C018BE2DB
:1006800002C08C0180E2F801808308C0F8018191EA
:100690008F010E941402FAA1F150FAA32AA1222389
:1006A000A9F7A3960FB6F894DEBF0FBECDBFCF91CA
:1006B000DF911F910F91FF90EF90DF90CF90BF904F
:1006C000AF909F908F907F906F905F904F903F90F2
:1006D0002F9008957F928F929F92AF92BF92CF9268
:1006E000DF92EF92FF920F931F93DF93CF93CDB7DB
:1006F000DEB77888C988DA8853E1E52EF12CEC0E54
:10070000FD1E14C0882381F480E090E0CF91DF913A
:100710001F910F91FF90EF90DF90CF90BF90AF901F
:100720009F908F907F9008950E94140296012F5FF2
:100730003F4F772021F0F6016901849103C0F60153
:10074000808169018532F1F62F5F3F4F772021F0DC
:10075000F6016901849103C0F60180816901843644
:1007600029F0883781F08336F9F606C000E117E2F8
:100770004AE0A42EB12C0CC0F701808122E030E0C9
:10078000E20EF31ED1CF00E010E130E1A32EB12C38
:1007900022E0822E912C8E0C9F1CF701E080F180CC
:1007A0008436B1F4F7FE11C0F094E194F108F394AB
:1007B0008DE20E94140209C0C8016AE070E00E9444
:1007C000AE048B016230710518F0E016F106A0F35B
:1007D000C701B8010E94AE04862F0E947702C701AC
:1007E000B8010E94AE047C01C801B5010E94AE04AC
:1007F0008B016115710561F7740198CFFC018FB70A
:10080000F894718360835383428317821682158222
:1008100014828FBF0895DC014FB7F89414968D9120
:100820009C911597892B11F4E0E025C016968D91C7
:100830009C911797ED91FC911197E80FF91FE081BA
:10084000019617969C938E93169712962D913C9134
:1008500013978217930730F0821B930B17969C9384
:100860008E93169714968D919C91159701971596D6
:100870009C938E9314974FBF8E2F0895FC014FB712
:10088000F8948481958168177907B0F486819781FF
:10089000860F971F97838683228133818217930760
:1008A00020F0821B930B9783868384819581861B1E
:1008B000970B9583848302C0158214824FBF0895DD
:1008C000FC01CB012FB7F8942FBF268137816281BD
:1008D0007381820F931F0E94AE040190F081E02D7E
:1008E000E80FF91F808108951F93CF93DF93EC01E8
:1008F000162F4FB7F8942C813D816A817B81261792
:10090000370798F48E819F81820F931F0E94AE0457
:10091000E881F981E80FF91F10838C819D81019690
:100920009D838C834FBF8FEF02C04FBF80E0DF916C
:10093000CF911F910895FC018FB7F8948FBF22814A
:10094000338184819581281B390BC9010895FC01ED
:100950008FB7F894158214828FBF0895AA1BBB1B12
:1009600051E107C0AA1FBB1FA617B70710F0A61BAF
:10097000B70B881F991F5A95A9F780959095BC01D0
:10098000CD010895A1E21A2EAA1BBB1BFD010DC0CB
:10099000AA1FBB1FEE1FFF1FA217B307E407F5072F
:1009A00020F0A21BB30BE40BF50B661F771F881F0B
:1009B000991F1A9469F760957095809590959B01A1
:0C09C000AC01BD01CF010895F894FFCFF9
:00000001FF
