:100000002AC039C038C037C036C035C034C033C04C
:1000100032C031C030C016C42EC0CDC36FC22BC099
:100020002AC029C028C048656C6C6F2C20576F729D
:100030006C6421204D7920416E616C6F673A2025F8
:10004000640D0A00303132333435363738394142A5
:1000500043444546000011241FBECFE5D4E0DEBF77
:10006000CDBF10E0A0E6B0E001C01D92A93FB107EE
:10007000E1F7C6D077C9C4CFDF93CF93CDB7DEB752
:10008000E4E3F0E01082E5E3F0E01082E1E3F0E089
:100090008FEF8083E7E3F0E087EC8083CF91DF91FF
:1000A0000895DF93CF9300D000D0CDB7DEB769833A
:1000B0007A838B839C8389819A81AB81BC81880FF1
:1000C000991FAA1FBB1F880F991FAA1FBB1F880F4C
:1000D000991FAA1FBB1F880F991FAA1FBB1F8983C7
:1000E0009A83AB83BC830BC089819A81AB81BC812D
:1000F0000197A109B10989839A83AB83BC83898164
:100100009A81AB81BC810097A105B10569F70F9079
:100110000F900F900F90CF91DF910895DF93CF93C1
:10012000CDB7DEB7A2E3B0E0E2E3F0E080818F7EFE
:100130008C93CF91DF910895DF93CF93CDB7DEB746
:10014000A2E3B0E0E2E3F0E0808180618C93CF91A4
:10015000DF910895DF93CF9300D000D0CDB7DEB705
:1001600069837A838B839C83A2E3B0E0E2E3F0E0CF
:10017000808184608C9389819A81AB81BC81BC0130
:10018000CD018FDFA2E3B0E0E2E3F0E080818B7F7E
:100190008C9368EC70E080E090E083DF0F900F902C
:1001A0000F900F90CF91DF910895DF93CF9300D000
:1001B00000D0CDB7DEB769837A838B839C83A2E3BB
:1001C000B0E0E2E3F0E0808188608C9389819A81DD
:1001D000AB81BC81BC01CD0164DFA2E3B0E0E2E30E
:1001E000F0E08081877F8C9368EC70E080E090E0A5
:1001F00058DF0F900F900F900F90CF91DF910895DF
:10020000DF93CF9300D000D000D0CDB7DEB71E82F1
:100210001D821C821B8288E090E09A83898383D1AF
:1002200060E076E980E090E0C6D188E493E016D5FE
:1002300023DF71D085E0AED081E0C0D07DDF85E0E6
:100240004DD1882F90E09E838D8384E047D1882F05
:1002500090E09C838B832D813E818B819C818217D2
:100260009307B4F42D813E818B819C81281B390B2F
:1002700089819A81821793075CF46CE270E080E0D8
:1002800090E068DF6CE270E080E090E08EDF27C0F5
:100290002B813C818D819E8182179307B4F42B8141
:1002A0003C818D819E81281B390B89819A8182171F
:1002B00093075CF469E170E080E090E04BDF69E176
:1002C00070E080E090E071DF0AC069E170E080E0FA
:1002D00090E040DF6CE270E080E090E066DF26E2D4
:1002E00030E000D000D00F92EDB7FEB7319681E03C
:1002F0008083328321838D819E81948383831DD764
:100300000F900F900F900F900F9064EF71E080E0CE
:1003100090E0C7DE94CFDF93CF93CDB7DEB7A6E2F0
:10032000B0E0E6E2F0E0808180688C93A6E2B0E085
:10033000E6E2F0E080818F7D8C9386E02BD081E037
:100340003DD0A7E2B0E0E7E2F0E080818F7D8C93C2
:10035000A6E2B0E0E6E2F0E0808188608C93109243
:10036000E4007894CF91DF910895DF93CF93CDB7D8
:10037000DEB7A6E2B0E0E6E2F0E08081877F8C9312
:10038000A6E2B0E0E6E2F0E080818F778C93CF9137
:10039000DF910895DF93CF930F92CDB7DEB78983B6
:1003A000A6E2B0E0E6E2F0E08081982F987F8981B4
:1003B000892B8C930F90CF91DF910895DF93CF938A
:1003C0000F92CDB7DEB78983A7E2B0E0E7E2F0E0B5
:1003D0008081282F2F738981882F90E000249695A3
:1003E00087950794969587950794982F802D822B53
:1003F0008C930F90CF91DF910895DF93CF930F925D
:10040000CDB7DEB78983A7E2B0E0E7E2F0E0808114
:10041000982F907E89818F71892B8C930F90CF912B
:10042000DF910895DF93CF93CDB7DEB7A6E2B0E0BA
:10043000E6E2F0E0808180618C93A6E2B0E0E6E243
:10044000F0E0808180648C93CF91DF910895DF93F9
:10045000CF93CDB7DEB7E6E2F0E080818074CF9134
:10046000DF910895DF93CF930F92CDB7DEB78983E5
:100470001092E400A7E2B0E0E7E2F0E08081982F7C
:10048000907E89818F71892B8C93A6E2B0E0E6E2A1
:10049000F0E0808180618C93A6E2B0E0E6E2F0E0DB
:1004A000808180648C93E6E2F0E08081882F90E088
:1004B000807490700097B9F7E4E2F0E08081282F13
:1004C00030E0E5E2F0E08081882F90E0982F8827E7
:1004D000822B932B0F90CF91DF910895DF93CF93D1
:1004E0000F92CDB7DEB789838981BCDF969587955A
:1004F000969587950F90CF91DF9108951F920F9257
:100500000FB60F9211248F93DF93CF93CDB7DEB741
:100510008FEF8093E400CF91DF918F910F900FBE0A
:100520000F901F901895DF93CF93CDB7DEB71AD0F9
:100530001092E1001092E000EAE2F0E088ED8083A2
:1005400060E875E280E090E036D08FEF8093E500C0
:100550001092EE001092F8001092F7007894CF916C
:10056000DF910895DF93CF93CDB7DEB786EE90E0AD
:1005700020E630E0B90140E450E0AED18FEE90E0EB
:1005800020EA30E0B90140E450E0A6D1CF91DF91FC
:100590000895DF93CF9300D0CDB7DEB79A838983D8
:1005A00089819A819093E1008093E0000F900F90F1
:1005B000CF91DF910895EF92FF920F931F93DF93F6
:1005C000CF9300D000D000D0CDB7DEB76B837C8353
:1005D0008D839E838B819C81AD81BE8180589B479A
:1005E000A14EBF4F880F991FAA1FBB1F880F991FCD
:1005F000AA1FBB1F880F991FAA1FBB1F7C018D015B
:100600008B819C81AD81BE81880F991FAA1FBB1F62
:10061000880F991FAA1FBB1F880F991FAA1FBB1FF6
:10062000880F991FAA1FBB1F9C01AD01C801B7010C
:1006300077D6DA01C90101979A838983E9E2F0E06C
:1006400089818083E0E4F0E089819A81892F99276C
:10065000808326960FB6F894DEBF0FBECDBFCF9134
:10066000DF911F910F91FF90EF900895DF93CF934B
:10067000CDB7DEB786EE90E0CF91DF910895DF939E
:10068000CF93CDB7DEB78FEE90E0CF91DF91089595
:10069000DF93CF930F92CDB7DEB789838091E500CA
:1006A0008823E1F3ECE2F0E0898180831092E50099
:1006B0000F90CF91DF910895DF93CF9300D00F92E9
:1006C000CDB7DEB7CE01019614D0882331F08981F1
:1006D000282F30E03B832A8304C08FEF9FEF9B835A
:1006E0008A838A819B810F900F900F90CF91DF9129
:1006F0000895DF93CF9300D00F92CDB7DEB79A83E2
:1007000089838091E8009091E900009789F08091B9
:10071000EA009091EB00009749F086EE90E012D14C
:10072000E981FA8180838FEF8B8303C01B8201C034
:100730001B828B810F900F900F90CF91DF910895C6
:10074000DF93CF93CDB7DEB71092EB001092EA00A3
:10075000CF91DF910895DF93CF930F92CDB7DEB79E
:100760008091EA009091EB00009719F48FEF898354
:1007700001C0198289810F90CF91DF910895DF9395
:10078000CF930F92CDB7DEB789838FEE90E069816A
:10079000CBD10F90CF91DF910895DF93CF93CDB759
:1007A000DEB78FEF8093EE008FEE90E0CBD070DF5E
:1007B000CF91DF9108951F920F920FB60F921124DF
:1007C0000F931F932F933F934F935F936F937F9359
:1007D0008F939F93AF93BF93EF93FF93DF93CF9349
:1007E000CDB7DEB78091EE008823A1F08091F300B1
:1007F0009091F400009741F00CE210E08FEE90E051
:10080000A1D0F801808309C01092EE008FEF809391
:10081000E50003C08FEF8093E500CF91DF91FF915A
:10082000EF91BF91AF919F918F917F916F915F9168
:100830004F913F912F911F910F910F900FBE0F90ED
:100840001F9018951F920F920FB60F9211242F939D
:100850003F934F935F936F937F938F939F93AF9348
:10086000BF93EF93FF93DF93CF930F92CDB7DEB794
:10087000ECE2F0E0808189838091E0009091E100DA
:10088000009739F0E091E000F091E100898109954D
:100890000FC086EE90E0698147D1882349F48091AA
:1008A000F7009091F80001969093F8008093F7007C
:1008B0000F90CF91DF91FF91EF91BF91AF919F91F9
:1008C0008F917F916F915F914F913F912F910F90F9
:1008D0000FBE0F901F901895DF93CF93CDB7DEB763
:1008E00027970FB6F894DEBF0FBECDBF9B838A83D8
:1008F0007D836C835F834E83EFE5F0E080818983A5
:10090000F894EA81FB818C819D8191838083EA81C7
:10091000FB818E819F8193838283EA81FB81178291
:100920001682EA81FB8115821482EFE5F0E089816D
:10093000808327960FB6F894DEBF0FBECDBFCF9150
:10094000DF910895DF93CF9300D000D0CDB7DEB70D
:100950009C838B831A82EFE5F0E080818983F89491
:10096000EB81FC81848195810097D1F1EB81FC8141
:1009700020813181EB81FC8186819781F901E80F2B
:10098000F91F80818A83EB81FC81868197810196A2
:10099000EB81FC8197838683EB81FC812681378103
:1009A000EB81FC81828193812817390780F0EB81EC
:1009B000FC8126813781EB81FC8182819381A901B1
:1009C000481B590BCA01EB81FC8197838683EB811D
:1009D000FC81848195810197EB81FC8195838483DF
:1009E000EFE5F0E0898180838A810F900F900F906E
:1009F0000F90CF91DF910895DF93CF9300D000D077
:100A00000F92CDB7DEB79B838A837D836C83EFE53E
:100A1000F0E080818983F894EA81FB81248135812B
:100A20008C819D8182179307B0F5EA81FB81268135
:100A300037818C819D81820F931FEA81FB8197838F
:100A40008683EA81FB8126813781EA81FB8182816D
:100A500093812817390780F0EA81FB81268137814D
:100A6000EA81FB8182819381A901481B590BCA014C
:100A7000EA81FB8197838683EA81FB81248135812A
:100A80008C819D81A901481B590BCA01EA81FB8118
:100A90009583848304C0EA81FB8115821482EFE58B
:100AA000F0E0898180830F900F900F900F900F904E
:100AB000CF91DF9108950F931F93DF93CF9300D0D1
:100AC00000D000D0CDB7DEB79C838B837E836D834F
:100AD000EFE5F0E080818A83F894EB81FC8100816E
:100AE0001181EB81FC81268137818D819E81820F6E
:100AF000931FEB81FC8122813381B901FDD3F80181
:100B0000E80FF91F80818983EFE5F0E08A81808317
:100B1000898126960FB6F894DEBF0FBECDBFCF9168
:100B2000DF911F910F9108950F931F93DF93CF9340
:100B300000D000D00F92CDB7DEB79B838A836C8341
:100B4000EFE5F0E080818983F894EA81FB812481DC
:100B50003581EA81FB81828193812817390748F525
:100B6000EA81FB8100811181EA81FB812681378145
:100B7000EA81FB8184819581820F931FEA81FB8149
:100B800022813381B901B8D3F801E80FF91F8C81B4
:100B90008083EA81FB81848195810196EA81FB81D2
:100BA00095838483EFE5F0E0898180838FEF8D83E7
:100BB00005C0EFE5F0E0898180831D828D810F9073
:100BC0000F900F900F900F90CF91DF911F910F9189
:100BD0000895DF93CF9300D000D00F92CDB7DEB74A
:100BE0009D838C83EFE5F0E080818B83F894EC812A
:100BF000FD8122813381EC81FD8184819581A90170
:100C0000481B590BCA019A838983EFE5F0E08B8179
:100C1000808389819A810F900F900F900F900F9091
:100C2000CF91DF910895DF93CF9300D00F92CDB78E
:100C3000DEB79B838A83EFE5F0E080818983F894B7
:100C4000EA81FB8115821482EFE5F0E089818083DF
:100C50000F900F900F90CF91DF910895DF93CF9376
:100C600000D0CDB7DEB79A83898389819A8190932A
:100C7000E3008093E2000F900F90CF91DF910895F1
:100C8000DF93CF930F92CDB7DEB7898389818A3006
:100C900031F4E091E200F091E3008DE00995E091FC
:100CA000E200F091E300898109950F90CF91DF91E7
:100CB0000895DF93CF9300D0CDB7DEB79A838983B1
:100CC00089819A81009781F00AC0E981FA812081A7
:100CD00089819A8101969A838983822FD1DFE98164
:100CE000FA818081882389F70F900F90CF91DF914F
:100CF0000895DF93CF93CDB7DEB72A970FB6F89458
:100D0000DEBF0FBECDBF9A8389837C836B835E83F6
:100D10004D8318861F8289819A81009709F447C004
:100D20002F81388519868B819C812817390710F40B
:100D300081E089878F819885019698878F8381E0EC
:100D400099858927882391F4E981FA8180818A87AE
:100D50008A85882311F091E09A878A8529813A81D2
:100D60002F5F3F4F3A8329838823D1F618861F824D
:100D700017C0E981FA818081882359F0E981FA81DD
:100D8000208189819A8101969A838983822F78DFD5
:100D900002C080E275DF8F819885019698878F83E6
:100DA0002F8138858D819E812817390710F32A9667
:100DB0000FB6F894DEBF0FBECDBFCF91DF9108957F
:100DC000DF93CF9300D000D000D0CDB7DEB79D83A6
:100DD0008C838C819D810097A9F002C08E8150DFA9
:100DE0008C819D819B838A838C819D8101969D83CB
:100DF0008C83EA81FB818491898389818E838E81B2
:100E0000882361F726960FB6F894DEBF0FBECDBFDC
:100E1000CF91DF910895DF93CF93CDB7DEB78AE00E
:100E20002FDFCF91DF910895DF93CF9300D000D0D3
:100E3000CDB7DEB78C838C81882F90E08F70907057
:100E40008C5B9F4F9B838A83EA81FB81849189839A
:100E5000898116DF0F900F900F900F90CF91DF9147
:100E60000895DF93CF930F92CDB7DEB78983898141
:100E700082958F70D9DF8981D7DF0F90CF91DF9175
:100E80000895DF93CF9300D0CDB7DEB79A838983DF
:100E900089819A81892F9927E4DF8981E2DF0F9088
:100EA0000F90CF91DF910895DF93CF9300D000D0C2
:100EB000CDB7DEB769837A838B839C8389819A81DE
:100EC000AB81BC81CD01AA27BB27DBDF89819A8159
:100ED000D8DF0F900F900F900F90CF91DF91089572
:100EE000EF92FF920F931F93DF93CF93CDB7DEB7AF
:100EF000E8970FB6F894DEBF0FBECDBF8EA76FA7E1
:100F000048AB29ABEAAAFBAA0CAB1DAB88A9882386
:100F1000B1F08AA99BA9ACA9BDA9BB2384F48AA975
:100F20009BA9ACA9BDA9B095A095909581959F4F1F
:100F3000AF4FBF4F88879987AA87BB8708C08AA908
:100F40009BA9ACA9BDA988879987AA87BB8788A9CF
:100F50008EAB8EA9882311F081E08EAB9EA98FA560
:100F6000891B81508F83CE010E9680969D878C873A
:100F70008C859D8501979D878C87EC85FD851082EA
:100F80008C859D8501979D878C878EA5282F30E0C5
:100F900040E050E088859985AA85BB85BC01CD01DC
:100FA000BFD1DC01CB018F7090708C5B9F4F9E8313
:100FB0008D83ED81FE8184918C838C81EC85FD8510
:100FC00080838EA5282F30E040E050E08885998509
:100FD000AA85BB85BC01CD01A3D1DA01C9018887EF
:100FE0009987AA87BB8745C088859985AA85BB85CF
:100FF0000097A105B105A1F18C859D8501979D877D
:101000008C878EA5282F30E040E050E088859985B8
:10101000AA85BB85BC01CD0183D1DC01CB018F70DA
:1010200090708C5B9F4F9B838A83EA81FB818491C4
:1010300089838981EC85FD8580838EA5282F30E00A
:1010400040E050E088859985AA85BB85BC01CD012B
:1010500067D1DA01C90188879987AA87BB8709C048
:101060008C859D8501979D878C87EC85FD8589A959
:1010700080838F818FAB8FA9882311F081E08FABA4
:101080008FA99F8191509F83882309F0ADCF88A9B4
:10109000882361F18AA99BA9ACA9BDA9BB2354F4FB
:1010A0008C859D8501979D878C87EC85FD858DE2DC
:1010B00080831CC08AA99BA9ACA9BDA918161906D2
:1010C0001A061B0654F48C859D8501979D878C8795
:1010D000EC85FD858BE2808309C08C859D85019719
:1010E0009D878C87EC85FD8580E280838FA58F832B
:1010F0000AC0EC85FD8520818C859D8501969D87A4
:101100008C87822FBDDD8F8188AF88AD882311F059
:1011100081E088AF88AD9F8191509F83882349F7F4
:10112000E8960FB6F894DEBF0FBECDBFCF91DF912A
:101130001F910F91FF90EF900895DF93CF93CDB75C
:10114000DEB763970FB6F894DEBF0FBECDBFCE01FA
:101150004B969F878E8710C08D85882359F480E039
:1011600090E063960FB6F894DEBF0FBECDBFCF916F
:10117000DF9108958D8584DD888D882381F0898DA8
:101180009A8D9E838D83898D9A8D01969A8F898FF2
:10119000ED81FE8184918C838C818B8B09C0E98DDC
:1011A000FA8D20812B8B898D9A8D01969A8F898F4C
:1011B0003B893D878D85853279F6888D882381F03E
:1011C000898D9A8D9B838A83898D9A8D01969A8FBA
:1011D000898FEA81FB818491898389818A8B09C007
:1011E000E98DFA8D80818A8B898D9A8D01969A8FEF
:1011F000898F9A899D878D85282F30E0398B288BA0
:101200008889998984369105B9F0288939892837E0
:101210003105D9F0888999898336910551F42E8555
:101220003F85C90102969F878E87F9018081918150
:101230008D878D8525DDA0CF8AE090E098878F830C
:1012400080E197E29A87898708C080E190E09887DB
:101250008F8380E090E19A8789872E853F85C90139
:1012600002969F878E87F901808191819C878B8769
:101270008D85843619F58B859C8599239CF48B8507
:101280009C85909581959F4F9C878B878DE2F8DC9C
:1012900009C089859A852AE030E0B9012DD0CB01BB
:1012A0009A87898789859A858230910538F02985C2
:1012B0003A858B859C858217930758F38B859C858F
:1012C00029853A85B90118D0CB01AEDD8B859C8587
:1012D00029853A85B90110D09C878B8789859A85A5
:1012E0002F813885B90108D0CB019A8789878985F4
:1012F0009A85009719F740CFAA1BBB1B51E107C085
:10130000AA1FBB1FA617B70710F0A61BB70B881F95
:10131000991F5A95A9F780959095BC01CD01089524
:10132000A1E21A2EAA1BBB1BFD010DC0AA1FBB1FE9
:10133000EE1FFF1FA217B307E407F50720F0A21B5B
:10134000B30BE40BF50B661F771F881F991F1A94C8
:1013500069F760957095809590959B01AC01BD01F2
:08136000CF010895F894FFCFBE
:00000001FF
